{
  "address": "0x3717c0A441189d828fFE2bdEc97485098CB1Dda2",
  "abi": [
    {
      "inputs": [
        {
          "internalType": "string",
          "name": "_baseUri",
          "type": "string"
        },
        {
          "internalType": "address",
          "name": "trustedForwarder",
          "type": "address"
        }
      ],
      "stateMutability": "nonpayable",
      "type": "constructor"
    },
    {
      "anonymous": false,
      "inputs": [
        {
          "indexed": true,
          "internalType": "address",
          "name": "account",
          "type": "address"
        },
        {
          "indexed": true,
          "internalType": "address",
          "name": "operator",
          "type": "address"
        },
        {
          "indexed": false,
          "internalType": "bool",
          "name": "approved",
          "type": "bool"
        }
      ],
      "name": "ApprovalForAll",
      "type": "event"
    },
    {
      "anonymous": false,
      "inputs": [
        {
          "indexed": true,
          "internalType": "address",
          "name": "previousOwner",
          "type": "address"
        },
        {
          "indexed": true,
          "internalType": "address",
          "name": "newOwner",
          "type": "address"
        }
      ],
      "name": "OwnershipTransferred",
      "type": "event"
    },
    {
      "anonymous": false,
      "inputs": [
        {
          "indexed": true,
          "internalType": "address",
          "name": "operator",
          "type": "address"
        },
        {
          "indexed": true,
          "internalType": "address",
          "name": "from",
          "type": "address"
        },
        {
          "indexed": true,
          "internalType": "address",
          "name": "to",
          "type": "address"
        },
        {
          "indexed": false,
          "internalType": "uint256[]",
          "name": "ids",
          "type": "uint256[]"
        },
        {
          "indexed": false,
          "internalType": "uint256[]",
          "name": "values",
          "type": "uint256[]"
        }
      ],
      "name": "TransferBatch",
      "type": "event"
    },
    {
      "anonymous": false,
      "inputs": [
        {
          "indexed": true,
          "internalType": "address",
          "name": "operator",
          "type": "address"
        },
        {
          "indexed": true,
          "internalType": "address",
          "name": "from",
          "type": "address"
        },
        {
          "indexed": true,
          "internalType": "address",
          "name": "to",
          "type": "address"
        },
        {
          "indexed": false,
          "internalType": "uint256",
          "name": "id",
          "type": "uint256"
        },
        {
          "indexed": false,
          "internalType": "uint256",
          "name": "value",
          "type": "uint256"
        }
      ],
      "name": "TransferSingle",
      "type": "event"
    },
    {
      "anonymous": false,
      "inputs": [
        {
          "indexed": false,
          "internalType": "string",
          "name": "value",
          "type": "string"
        },
        {
          "indexed": true,
          "internalType": "uint256",
          "name": "id",
          "type": "uint256"
        }
      ],
      "name": "URI",
      "type": "event"
    },
    {
      "inputs": [
        {
          "internalType": "address",
          "name": "account",
          "type": "address"
        },
        {
          "internalType": "uint256",
          "name": "id",
          "type": "uint256"
        }
      ],
      "name": "balanceOf",
      "outputs": [
        {
          "internalType": "uint256",
          "name": "",
          "type": "uint256"
        }
      ],
      "stateMutability": "view",
      "type": "function"
    },
    {
      "inputs": [
        {
          "internalType": "address[]",
          "name": "accounts",
          "type": "address[]"
        },
        {
          "internalType": "uint256[]",
          "name": "ids",
          "type": "uint256[]"
        }
      ],
      "name": "balanceOfBatch",
      "outputs": [
        {
          "internalType": "uint256[]",
          "name": "",
          "type": "uint256[]"
        }
      ],
      "stateMutability": "view",
      "type": "function"
    },
    {
      "inputs": [],
      "name": "baseUri",
      "outputs": [
        {
          "internalType": "string",
          "name": "",
          "type": "string"
        }
      ],
      "stateMutability": "view",
      "type": "function"
    },
    {
      "inputs": [
        {
          "internalType": "address",
          "name": "account",
          "type": "address"
        },
        {
          "internalType": "address",
          "name": "operator",
          "type": "address"
        }
      ],
      "name": "isApprovedForAll",
      "outputs": [
        {
          "internalType": "bool",
          "name": "",
          "type": "bool"
        }
      ],
      "stateMutability": "view",
      "type": "function"
    },
    {
      "inputs": [
        {
          "internalType": "address",
          "name": "forwarder",
          "type": "address"
        }
      ],
      "name": "isTrustedForwarder",
      "outputs": [
        {
          "internalType": "bool",
          "name": "",
          "type": "bool"
        }
      ],
      "stateMutability": "view",
      "type": "function"
    },
    {
      "inputs": [
        {
          "internalType": "uint256",
          "name": "amount",
          "type": "uint256"
        }
      ],
      "name": "mint",
      "outputs": [],
      "stateMutability": "nonpayable",
      "type": "function"
    },
    {
      "inputs": [],
      "name": "owner",
      "outputs": [
        {
          "internalType": "address",
          "name": "",
          "type": "address"
        }
      ],
      "stateMutability": "view",
      "type": "function"
    },
    {
      "inputs": [],
      "name": "renounceOwnership",
      "outputs": [],
      "stateMutability": "nonpayable",
      "type": "function"
    },
    {
      "inputs": [
        {
          "internalType": "address",
          "name": "from",
          "type": "address"
        },
        {
          "internalType": "address",
          "name": "to",
          "type": "address"
        },
        {
          "internalType": "uint256[]",
          "name": "ids",
          "type": "uint256[]"
        },
        {
          "internalType": "uint256[]",
          "name": "amounts",
          "type": "uint256[]"
        },
        {
          "internalType": "bytes",
          "name": "data",
          "type": "bytes"
        }
      ],
      "name": "safeBatchTransferFrom",
      "outputs": [],
      "stateMutability": "nonpayable",
      "type": "function"
    },
    {
      "inputs": [
        {
          "internalType": "address",
          "name": "from",
          "type": "address"
        },
        {
          "internalType": "address",
          "name": "to",
          "type": "address"
        },
        {
          "internalType": "uint256",
          "name": "id",
          "type": "uint256"
        },
        {
          "internalType": "uint256",
          "name": "amount",
          "type": "uint256"
        },
        {
          "internalType": "bytes",
          "name": "data",
          "type": "bytes"
        }
      ],
      "name": "safeTransferFrom",
      "outputs": [],
      "stateMutability": "nonpayable",
      "type": "function"
    },
    {
      "inputs": [
        {
          "internalType": "address",
          "name": "operator",
          "type": "address"
        },
        {
          "internalType": "bool",
          "name": "approved",
          "type": "bool"
        }
      ],
      "name": "setApprovalForAll",
      "outputs": [],
      "stateMutability": "nonpayable",
      "type": "function"
    },
    {
      "inputs": [
        {
          "internalType": "bytes4",
          "name": "interfaceId",
          "type": "bytes4"
        }
      ],
      "name": "supportsInterface",
      "outputs": [
        {
          "internalType": "bool",
          "name": "",
          "type": "bool"
        }
      ],
      "stateMutability": "view",
      "type": "function"
    },
    {
      "inputs": [
        {
          "internalType": "address",
          "name": "newOwner",
          "type": "address"
        }
      ],
      "name": "transferOwnership",
      "outputs": [],
      "stateMutability": "nonpayable",
      "type": "function"
    },
    {
      "inputs": [
        {
          "internalType": "uint256",
          "name": "id",
          "type": "uint256"
        }
      ],
      "name": "uri",
      "outputs": [
        {
          "internalType": "string",
          "name": "",
          "type": "string"
        }
      ],
      "stateMutability": "view",
      "type": "function"
    },
    {
      "inputs": [],
      "name": "utilCount",
      "outputs": [
        {
          "internalType": "uint256",
          "name": "",
          "type": "uint256"
        }
      ],
      "stateMutability": "view",
      "type": "function"
    }
  ],
  "transactionHash": "0x8d4a596106fab42f59b391f8040c0179adcab7ef5ee90c5ea39504871b4f499c",
  "args": [
    "https://www.example.com/utils/",
    "0x7616a954c1b1a51Af381426596Fe37Cf2CB7fEb5"
  ],
  "numDeployments": 1,
  "solcInputHash": "b0714aa567f667d1bdb5fd8234fe88af",
  "bytecode": "0x60a06040523480156200001157600080fd5b5060405162001c9a38038062001c9a83398101604081905262000034916200021c565b6001600160a01b038116608052816200004d8162000080565b50620000626200005c62000099565b620000b5565b81516200007790600490602085019062000143565b50505062000349565b80516200009590600290602084019062000143565b5050565b6000620000b06200010760201b620007041760201c565b905090565b600380546001600160a01b038381166001600160a01b0319831681179093556040519116919082907f8be0079c531659141344cd1fd0a4f28419497f9722a3daafe3b4186f6b6457e090600090a35050565b6080516000906001600160a01b031633036200012a575060131936013560601c90565b620000b06200013f60201b620007501760201c565b3390565b82805462000151906200030d565b90600052602060002090601f016020900481019282620001755760008555620001c0565b82601f106200019057805160ff1916838001178555620001c0565b82800160010185558215620001c0579182015b82811115620001c0578251825591602001919060010190620001a3565b50620001ce929150620001d2565b5090565b5b80821115620001ce5760008155600101620001d3565b634e487b7160e01b600052604160045260246000fd5b80516001600160a01b03811681146200021757600080fd5b919050565b600080604083850312156200023057600080fd5b82516001600160401b03808211156200024857600080fd5b818501915085601f8301126200025d57600080fd5b815181811115620002725762000272620001e9565b604051601f8201601f19908116603f011681019083821181831017156200029d576200029d620001e9565b81604052828152602093508884848701011115620002ba57600080fd5b600091505b82821015620002de5784820184015181830185015290830190620002bf565b82821115620002f05760008484830101525b955062000302915050858201620001ff565b925050509250929050565b600181811c908216806200032257607f821691505b6020821081036200034357634e487b7160e01b600052602260045260246000fd5b50919050565b60805161192e6200036c600039600081816101a70152610708015261192e6000f3fe608060405234801561001057600080fd5b50600436106100f45760003560e01c80638da5cb5b11610097578063baacbe9b11610066578063baacbe9b14610228578063e985e9c514610231578063f242432a1461026d578063f2fde38b1461028057600080fd5b80638da5cb5b146101df5780639abc8320146101fa578063a0712d6814610202578063a22cb4651461021557600080fd5b80632eb2c2d6116100d35780632eb2c2d6146101625780634e1273f414610177578063572b6c0514610197578063715018a6146101d757600080fd5b8062fdd58e146100f957806301ffc9a71461011f5780630e89341c14610142575b600080fd5b61010c610107366004611006565b610293565b6040519081526020015b60405180910390f35b61013261012d366004611046565b610329565b6040519015158152602001610116565b61015561015036600461106a565b61037b565b60405161011691906110df565b61017561017036600461123e565b6103af565b005b61018a6101853660046112e8565b61040d565b60405161011691906113ee565b6101326101a5366004611401565b7f00000000000000000000000000000000000000000000000000000000000000006001600160a01b0390811691161490565b610175610537565b6003546040516001600160a01b039091168152602001610116565b61015561054b565b61017561021036600461106a565b6105d9565b61017561022336600461141c565b610621565b61010c60055481565b61013261023f366004611458565b6001600160a01b03918216600090815260016020908152604080832093909416825291909152205460ff1690565b61017561027b36600461148b565b610637565b61017561028e366004611401565b61068e565b60006001600160a01b0383166103035760405162461bcd60e51b815260206004820152602a60248201527f455243313135353a2061646472657373207a65726f206973206e6f742061207660448201526930b634b21037bbb732b960b11b60648201526084015b60405180910390fd5b506000908152602081815260408083206001600160a01b03949094168352929052205490565b60006001600160e01b03198216636cdb3d1360e11b148061035a57506001600160e01b031982166303a24d0760e21b145b8061037557506301ffc9a760e01b6001600160e01b03198316145b92915050565b6060600461038883610754565b604051602001610399929190611546565b6040516020818303038152906040529050919050565b6103b7610798565b6001600160a01b0316856001600160a01b031614806103dd57506103dd8561023f610798565b6103f95760405162461bcd60e51b81526004016102fa906115ec565b61040685858585856107a2565b5050505050565b606081518351146104725760405162461bcd60e51b815260206004820152602960248201527f455243313135353a206163636f756e747320616e6420696473206c656e677468604482015268040dad2e6dac2e8c6d60bb1b60648201526084016102fa565b6000835167ffffffffffffffff81111561048e5761048e6110f2565b6040519080825280602002602001820160405280156104b7578160200160208202803683370190505b50905060005b845181101561052f576105028582815181106104db576104db61163a565b60200260200101518583815181106104f5576104f561163a565b6020026020010151610293565b8282815181106105145761051461163a565b602090810291909101015261052881611666565b90506104bd565b509392505050565b61053f61098a565b6105496000610a03565b565b60048054610558906114f0565b80601f0160208091040260200160405190810160405280929190818152602001828054610584906114f0565b80156105d15780601f106105a6576101008083540402835291602001916105d1565b820191906000526020600020905b8154815290600101906020018083116105b457829003601f168201915b505050505081565b6105e161098a565b6001600560008282546105f4919061167f565b9091555061061e9050610605610798565b6005548360405180602001604052806000815250610a55565b50565b61063361062c610798565b8383610b74565b5050565b61063f610798565b6001600160a01b0316856001600160a01b0316148061066557506106658561023f610798565b6106815760405162461bcd60e51b81526004016102fa906115ec565b6104068585858585610c54565b61069661098a565b6001600160a01b0381166106fb5760405162461bcd60e51b815260206004820152602660248201527f4f776e61626c653a206e6577206f776e657220697320746865207a65726f206160448201526564647265737360d01b60648201526084016102fa565b61061e81610a03565b60007f00000000000000000000000000000000000000000000000000000000000000006001600160a01b03163303610743575060131936013560601c90565b503390565b905090565b90565b3390565b606060a06040510180604052602081039150506000815280825b600183039250600a81066030018353600a90048061076e5750819003601f19909101908152919050565b6000610748610704565b81518351146108045760405162461bcd60e51b815260206004820152602860248201527f455243313135353a2069647320616e6420616d6f756e7473206c656e677468206044820152670dad2e6dac2e8c6d60c31b60648201526084016102fa565b6001600160a01b03841661082a5760405162461bcd60e51b81526004016102fa90611697565b6000610834610798565b905060005b845181101561091c5760008582815181106108565761085661163a565b6020026020010151905060008583815181106108745761087461163a565b602090810291909101810151600084815280835260408082206001600160a01b038e1683529093529190912054909150818110156108c45760405162461bcd60e51b81526004016102fa906116dc565b6000838152602081815260408083206001600160a01b038e8116855292528083208585039055908b1682528120805484929061090190849061167f565b925050819055505050508061091590611666565b9050610839565b50846001600160a01b0316866001600160a01b0316826001600160a01b03167f4a39dc06d4c0dbc64b70af90fd698a233a518aa5d07e595d983b8c0526c8f7fb878760405161096c929190611726565b60405180910390a4610982818787878787610d89565b505050505050565b610992610798565b6001600160a01b03166109ad6003546001600160a01b031690565b6001600160a01b0316146105495760405162461bcd60e51b815260206004820181905260248201527f4f776e61626c653a2063616c6c6572206973206e6f7420746865206f776e657260448201526064016102fa565b600380546001600160a01b038381166001600160a01b0319831681179093556040519116919082907f8be0079c531659141344cd1fd0a4f28419497f9722a3daafe3b4186f6b6457e090600090a35050565b6001600160a01b038416610ab55760405162461bcd60e51b815260206004820152602160248201527f455243313135353a206d696e7420746f20746865207a65726f206164647265736044820152607360f81b60648201526084016102fa565b6000610abf610798565b90506000610acc85610ee4565b90506000610ad985610ee4565b90506000868152602081815260408083206001600160a01b038b16845290915281208054879290610b0b90849061167f565b909155505060408051878152602081018790526001600160a01b03808a1692600092918716917fc3d58168c5ae7397731d063d5bbf3d657854427343f4c083240f7aacaa2d0f62910160405180910390a4610b6b83600089898989610f2f565b50505050505050565b816001600160a01b0316836001600160a01b031603610be75760405162461bcd60e51b815260206004820152602960248201527f455243313135353a2073657474696e6720617070726f76616c20737461747573604482015268103337b91039b2b63360b91b60648201526084016102fa565b6001600160a01b03838116600081815260016020908152604080832094871680845294825291829020805460ff191686151590811790915591519182527f17307eab39ab6107e8899845ad3d59bd9653f200f220920489ca2b5937696c31910160405180910390a3505050565b6001600160a01b038416610c7a5760405162461bcd60e51b81526004016102fa90611697565b6000610c84610798565b90506000610c9185610ee4565b90506000610c9e85610ee4565b90506000868152602081815260408083206001600160a01b038c16845290915290205485811015610ce15760405162461bcd60e51b81526004016102fa906116dc565b6000878152602081815260408083206001600160a01b038d8116855292528083208985039055908a16825281208054889290610d1e90849061167f565b909155505060408051888152602081018890526001600160a01b03808b16928c821692918816917fc3d58168c5ae7397731d063d5bbf3d657854427343f4c083240f7aacaa2d0f62910160405180910390a4610d7e848a8a8a8a8a610f2f565b505050505050505050565b6001600160a01b0384163b156109825760405163bc197c8160e01b81526001600160a01b0385169063bc197c8190610dcd908990899088908890889060040161174b565b6020604051808303816000875af1925050508015610e08575060408051601f3d908101601f19168201909252610e05918101906117a9565b60015b610eb457610e146117c6565b806308c379a003610e4d5750610e286117e1565b80610e335750610e4f565b8060405162461bcd60e51b81526004016102fa91906110df565b505b60405162461bcd60e51b815260206004820152603460248201527f455243313135353a207472616e7366657220746f206e6f6e2d455243313135356044820152732932b1b2b4bb32b91034b6b83632b6b2b73a32b960611b60648201526084016102fa565b6001600160e01b0319811663bc197c8160e01b14610b6b5760405162461bcd60e51b81526004016102fa9061186b565b60408051600180825281830190925260609160009190602080830190803683370190505090508281600081518110610f1e57610f1e61163a565b602090810291909101015292915050565b6001600160a01b0384163b156109825760405163f23a6e6160e01b81526001600160a01b0385169063f23a6e6190610f7390899089908890889088906004016118b3565b6020604051808303816000875af1925050508015610fae575060408051601f3d908101601f19168201909252610fab918101906117a9565b60015b610fba57610e146117c6565b6001600160e01b0319811663f23a6e6160e01b14610b6b5760405162461bcd60e51b81526004016102fa9061186b565b80356001600160a01b038116811461100157600080fd5b919050565b6000806040838503121561101957600080fd5b61102283610fea565b946020939093013593505050565b6001600160e01b03198116811461061e57600080fd5b60006020828403121561105857600080fd5b813561106381611030565b9392505050565b60006020828403121561107c57600080fd5b5035919050565b60005b8381101561109e578181015183820152602001611086565b838111156110ad576000848401525b50505050565b600081518084526110cb816020860160208601611083565b601f01601f19169290920160200192915050565b60208152600061106360208301846110b3565b634e487b7160e01b600052604160045260246000fd5b601f8201601f1916810167ffffffffffffffff8111828210171561112e5761112e6110f2565b6040525050565b600067ffffffffffffffff82111561114f5761114f6110f2565b5060051b60200190565b600082601f83011261116a57600080fd5b8135602061117782611135565b6040516111848282611108565b83815260059390931b85018201928281019150868411156111a457600080fd5b8286015b848110156111bf57803583529183019183016111a8565b509695505050505050565b600082601f8301126111db57600080fd5b813567ffffffffffffffff8111156111f5576111f56110f2565b60405161120c601f8301601f191660200182611108565b81815284602083860101111561122157600080fd5b816020850160208301376000918101602001919091529392505050565b600080600080600060a0868803121561125657600080fd5b61125f86610fea565b945061126d60208701610fea565b9350604086013567ffffffffffffffff8082111561128a57600080fd5b61129689838a01611159565b945060608801359150808211156112ac57600080fd5b6112b889838a01611159565b935060808801359150808211156112ce57600080fd5b506112db888289016111ca565b9150509295509295909350565b600080604083850312156112fb57600080fd5b823567ffffffffffffffff8082111561131357600080fd5b818501915085601f83011261132757600080fd5b8135602061133482611135565b6040516113418282611108565b83815260059390931b850182019282810191508984111561136157600080fd5b948201945b838610156113865761137786610fea565b82529482019490820190611366565b9650508601359250508082111561139c57600080fd5b506113a985828601611159565b9150509250929050565b600081518084526020808501945080840160005b838110156113e3578151875295820195908201906001016113c7565b509495945050505050565b60208152600061106360208301846113b3565b60006020828403121561141357600080fd5b61106382610fea565b6000806040838503121561142f57600080fd5b61143883610fea565b91506020830135801515811461144d57600080fd5b809150509250929050565b6000806040838503121561146b57600080fd5b61147483610fea565b915061148260208401610fea565b90509250929050565b600080600080600060a086880312156114a357600080fd5b6114ac86610fea565b94506114ba60208701610fea565b93506040860135925060608601359150608086013567ffffffffffffffff8111156114e457600080fd5b6112db888289016111ca565b600181811c9082168061150457607f821691505b60208210810361152457634e487b7160e01b600052602260045260246000fd5b50919050565b6000815161153c818560208601611083565b9290920192915050565b600080845481600182811c91508083168061156257607f831692505b6020808410820361158157634e487b7160e01b86526022600452602486fd5b81801561159557600181146115a6576115d3565b60ff198616895284890196506115d3565b60008b81526020902060005b868110156115cb5781548b8201529085019083016115b2565b505084890196505b5050505050506115e3818561152a565b95945050505050565b6020808252602e908201527f455243313135353a2063616c6c6572206973206e6f7420746f6b656e206f776e60408201526d195c881bdc88185c1c1c9bdd995960921b606082015260800190565b634e487b7160e01b600052603260045260246000fd5b634e487b7160e01b600052601160045260246000fd5b60006001820161167857611678611650565b5060010190565b6000821982111561169257611692611650565b500190565b60208082526025908201527f455243313135353a207472616e7366657220746f20746865207a65726f206164604082015264647265737360d81b606082015260800190565b6020808252602a908201527f455243313135353a20696e73756666696369656e742062616c616e636520666f60408201526939103a3930b739b332b960b11b606082015260800190565b60408152600061173960408301856113b3565b82810360208401526115e381856113b3565b6001600160a01b0386811682528516602082015260a060408201819052600090611777908301866113b3565b828103606084015261178981866113b3565b9050828103608084015261179d81856110b3565b98975050505050505050565b6000602082840312156117bb57600080fd5b815161106381611030565b600060033d111561074d5760046000803e5060005160e01c90565b600060443d10156117ef5790565b6040516003193d81016004833e81513d67ffffffffffffffff816024840111818411171561181f57505050505090565b82850191508151818111156118375750505050505090565b843d87010160208285010111156118515750505050505090565b61186060208286010187611108565b509095945050505050565b60208082526028908201527f455243313135353a204552433131353552656365697665722072656a656374656040820152676420746f6b656e7360c01b606082015260800190565b6001600160a01b03868116825285166020820152604081018490526060810183905260a0608082018190526000906118ed908301846110b3565b97965050505050505056fea26469706673582212200c8f2d9a56350d1f1efb0267c6a0893d24844e596a5ce1992bb34ff65d60d43e64736f6c634300080d0033",
  "devdoc": {
    "kind": "dev",
    "methods": {
      "balanceOf(address,uint256)": {
        "details": "See {IERC1155-balanceOf}. Requirements: - `account` cannot be the zero address."
      },
      "balanceOfBatch(address[],uint256[])": {
        "details": "See {IERC1155-balanceOfBatch}. Requirements: - `accounts` and `ids` must have the same length."
      },
      "isApprovedForAll(address,address)": {
        "details": "See {IERC1155-isApprovedForAll}."
      },
      "owner()": {
        "details": "Returns the address of the current owner."
      },
      "renounceOwnership()": {
        "details": "Leaves the contract without owner. It will not be possible to call `onlyOwner` functions. Can only be called by the current owner. NOTE: Renouncing ownership will leave the contract without an owner, thereby disabling any functionality that is only available to the owner."
      },
      "safeBatchTransferFrom(address,address,uint256[],uint256[],bytes)": {
        "details": "See {IERC1155-safeBatchTransferFrom}."
      },
      "safeTransferFrom(address,address,uint256,uint256,bytes)": {
        "details": "See {IERC1155-safeTransferFrom}."
      },
      "setApprovalForAll(address,bool)": {
        "details": "See {IERC1155-setApprovalForAll}."
      },
      "supportsInterface(bytes4)": {
        "details": "See {IERC165-supportsInterface}."
      },
      "transferOwnership(address)": {
        "details": "Transfers ownership of the contract to a new account (`newOwner`). Can only be called by the current owner."
      }
    },
    "version": 1
  },
  "userdoc": {
    "kind": "user",
    "methods": {},
    "version": 1
  },
  "storageLayout": {
    "storage": [
      {
        "astId": 586,
        "contract": "src/Utils.sol:Utils",
        "label": "_balances",
        "offset": 0,
        "slot": "0",
        "type": "t_mapping(t_uint256,t_mapping(t_address,t_uint256))"
      },
      {
        "astId": 592,
        "contract": "src/Utils.sol:Utils",
        "label": "_operatorApprovals",
        "offset": 0,
        "slot": "1",
        "type": "t_mapping(t_address,t_mapping(t_address,t_bool))"
      },
      {
        "astId": 594,
        "contract": "src/Utils.sol:Utils",
        "label": "_uri",
        "offset": 0,
        "slot": "2",
        "type": "t_string_storage"
      },
      {
        "astId": 351,
        "contract": "src/Utils.sol:Utils",
        "label": "_owner",
        "offset": 0,
        "slot": "3",
        "type": "t_address"
      },
      {
        "astId": 8913,
        "contract": "src/Utils.sol:Utils",
        "label": "baseUri",
        "offset": 0,
        "slot": "4",
        "type": "t_string_storage"
      },
      {
        "astId": 8915,
        "contract": "src/Utils.sol:Utils",
        "label": "utilCount",
        "offset": 0,
        "slot": "5",
        "type": "t_uint256"
      }
    ],
    "types": {
      "t_address": {
        "encoding": "inplace",
        "label": "address",
        "numberOfBytes": "20"
      },
      "t_bool": {
        "encoding": "inplace",
        "label": "bool",
        "numberOfBytes": "1"
      },
      "t_mapping(t_address,t_bool)": {
        "encoding": "mapping",
        "key": "t_address",
        "label": "mapping(address => bool)",
        "numberOfBytes": "32",
        "value": "t_bool"
      },
      "t_mapping(t_address,t_mapping(t_address,t_bool))": {
        "encoding": "mapping",
        "key": "t_address",
        "label": "mapping(address => mapping(address => bool))",
        "numberOfBytes": "32",
        "value": "t_mapping(t_address,t_bool)"
      },
      "t_mapping(t_address,t_uint256)": {
        "encoding": "mapping",
        "key": "t_address",
        "label": "mapping(address => uint256)",
        "numberOfBytes": "32",
        "value": "t_uint256"
      },
      "t_mapping(t_uint256,t_mapping(t_address,t_uint256))": {
        "encoding": "mapping",
        "key": "t_uint256",
        "label": "mapping(uint256 => mapping(address => uint256))",
        "numberOfBytes": "32",
        "value": "t_mapping(t_address,t_uint256)"
      },
      "t_string_storage": {
        "encoding": "bytes",
        "label": "string",
        "numberOfBytes": "32"
      },
      "t_uint256": {
        "encoding": "inplace",
        "label": "uint256",
        "numberOfBytes": "32"
      }
    }
  }
}