{
  "address": "0x2e838fD31952e85485C84eEA80EA3DC30F8970D6",
  "abi": [
    {
      "inputs": [
        {
          "internalType": "uint256",
          "name": "_size",
          "type": "uint256"
        },
        {
          "internalType": "uint256",
          "name": "_perSize",
          "type": "uint256"
        },
        {
          "internalType": "string",
          "name": "_baseUri",
          "type": "string"
        },
        {
          "internalType": "address",
          "name": "_utilsAddress",
          "type": "address"
        },
        {
          "internalType": "address",
          "name": "trustedForwarder",
          "type": "address"
        }
      ],
      "stateMutability": "nonpayable",
      "type": "constructor"
    },
    {
      "inputs": [],
      "name": "InvalidLength",
      "type": "error"
    },
    {
      "inputs": [],
      "name": "InvalidXIndex",
      "type": "error"
    },
    {
      "inputs": [],
      "name": "InvalidYIndex",
      "type": "error"
    },
    {
      "inputs": [],
      "name": "LandAlreadyOwned",
      "type": "error"
    },
    {
      "inputs": [],
      "name": "NotOwner",
      "type": "error"
    },
    {
      "inputs": [],
      "name": "SizeNotDivisibleByPerSize",
      "type": "error"
    },
    {
      "inputs": [],
      "name": "ZeroPerSize",
      "type": "error"
    },
    {
      "inputs": [],
      "name": "ZeroSize",
      "type": "error"
    },
    {
      "anonymous": false,
      "inputs": [
        {
          "indexed": true,
          "internalType": "address",
          "name": "owner",
          "type": "address"
        },
        {
          "indexed": true,
          "internalType": "address",
          "name": "approved",
          "type": "address"
        },
        {
          "indexed": true,
          "internalType": "uint256",
          "name": "tokenId",
          "type": "uint256"
        }
      ],
      "name": "Approval",
      "type": "event"
    },
    {
      "anonymous": false,
      "inputs": [
        {
          "indexed": true,
          "internalType": "address",
          "name": "owner",
          "type": "address"
        },
        {
          "indexed": true,
          "internalType": "address",
          "name": "operator",
          "type": "address"
        },
        {
          "indexed": false,
          "internalType": "bool",
          "name": "approved",
          "type": "bool"
        }
      ],
      "name": "ApprovalForAll",
      "type": "event"
    },
    {
      "anonymous": false,
      "inputs": [
        {
          "indexed": true,
          "internalType": "address",
          "name": "from",
          "type": "address"
        },
        {
          "indexed": true,
          "internalType": "address",
          "name": "to",
          "type": "address"
        },
        {
          "indexed": true,
          "internalType": "uint256",
          "name": "tokenId",
          "type": "uint256"
        }
      ],
      "name": "Transfer",
      "type": "event"
    },
    {
      "inputs": [
        {
          "internalType": "address",
          "name": "to",
          "type": "address"
        },
        {
          "internalType": "uint256",
          "name": "tokenId",
          "type": "uint256"
        }
      ],
      "name": "approve",
      "outputs": [],
      "stateMutability": "nonpayable",
      "type": "function"
    },
    {
      "inputs": [
        {
          "internalType": "address",
          "name": "owner",
          "type": "address"
        }
      ],
      "name": "balanceOf",
      "outputs": [
        {
          "internalType": "uint256",
          "name": "",
          "type": "uint256"
        }
      ],
      "stateMutability": "view",
      "type": "function"
    },
    {
      "inputs": [],
      "name": "baseUri",
      "outputs": [
        {
          "internalType": "string",
          "name": "",
          "type": "string"
        }
      ],
      "stateMutability": "view",
      "type": "function"
    },
    {
      "inputs": [
        {
          "internalType": "uint256",
          "name": "tokenId",
          "type": "uint256"
        }
      ],
      "name": "getApproved",
      "outputs": [
        {
          "internalType": "address",
          "name": "",
          "type": "address"
        }
      ],
      "stateMutability": "view",
      "type": "function"
    },
    {
      "inputs": [
        {
          "internalType": "address",
          "name": "owner",
          "type": "address"
        },
        {
          "internalType": "address",
          "name": "operator",
          "type": "address"
        }
      ],
      "name": "isApprovedForAll",
      "outputs": [
        {
          "internalType": "bool",
          "name": "",
          "type": "bool"
        }
      ],
      "stateMutability": "view",
      "type": "function"
    },
    {
      "inputs": [
        {
          "internalType": "address",
          "name": "forwarder",
          "type": "address"
        }
      ],
      "name": "isTrustedForwarder",
      "outputs": [
        {
          "internalType": "bool",
          "name": "",
          "type": "bool"
        }
      ],
      "stateMutability": "view",
      "type": "function"
    },
    {
      "inputs": [
        {
          "internalType": "uint256",
          "name": "",
          "type": "uint256"
        }
      ],
      "name": "land",
      "outputs": [
        {
          "internalType": "uint256",
          "name": "xIndex",
          "type": "uint256"
        },
        {
          "internalType": "uint256",
          "name": "yIndex",
          "type": "uint256"
        }
      ],
      "stateMutability": "view",
      "type": "function"
    },
    {
      "inputs": [],
      "name": "landCount",
      "outputs": [
        {
          "internalType": "uint256",
          "name": "",
          "type": "uint256"
        }
      ],
      "stateMutability": "view",
      "type": "function"
    },
    {
      "inputs": [
        {
          "internalType": "uint256",
          "name": "",
          "type": "uint256"
        },
        {
          "internalType": "uint256",
          "name": "",
          "type": "uint256"
        }
      ],
      "name": "landIds",
      "outputs": [
        {
          "internalType": "uint256",
          "name": "",
          "type": "uint256"
        }
      ],
      "stateMutability": "view",
      "type": "function"
    },
    {
      "inputs": [
        {
          "internalType": "uint256",
          "name": "",
          "type": "uint256"
        },
        {
          "internalType": "uint256",
          "name": "",
          "type": "uint256"
        }
      ],
      "name": "map",
      "outputs": [
        {
          "internalType": "uint256",
          "name": "",
          "type": "uint256"
        }
      ],
      "stateMutability": "view",
      "type": "function"
    },
    {
      "inputs": [
        {
          "internalType": "uint256",
          "name": "xIndex",
          "type": "uint256"
        },
        {
          "internalType": "uint256",
          "name": "yIndex",
          "type": "uint256"
        }
      ],
      "name": "mint",
      "outputs": [
        {
          "internalType": "uint256",
          "name": "",
          "type": "uint256"
        }
      ],
      "stateMutability": "nonpayable",
      "type": "function"
    },
    {
      "inputs": [],
      "name": "name",
      "outputs": [
        {
          "internalType": "string",
          "name": "",
          "type": "string"
        }
      ],
      "stateMutability": "view",
      "type": "function"
    },
    {
      "inputs": [
        {
          "internalType": "address",
          "name": "",
          "type": "address"
        },
        {
          "internalType": "address",
          "name": "",
          "type": "address"
        },
        {
          "internalType": "uint256[]",
          "name": "",
          "type": "uint256[]"
        },
        {
          "internalType": "uint256[]",
          "name": "",
          "type": "uint256[]"
        },
        {
          "internalType": "bytes",
          "name": "",
          "type": "bytes"
        }
      ],
      "name": "onERC1155BatchReceived",
      "outputs": [
        {
          "internalType": "bytes4",
          "name": "",
          "type": "bytes4"
        }
      ],
      "stateMutability": "nonpayable",
      "type": "function"
    },
    {
      "inputs": [
        {
          "internalType": "address",
          "name": "",
          "type": "address"
        },
        {
          "internalType": "address",
          "name": "",
          "type": "address"
        },
        {
          "internalType": "uint256",
          "name": "",
          "type": "uint256"
        },
        {
          "internalType": "uint256",
          "name": "",
          "type": "uint256"
        },
        {
          "internalType": "bytes",
          "name": "",
          "type": "bytes"
        }
      ],
      "name": "onERC1155Received",
      "outputs": [
        {
          "internalType": "bytes4",
          "name": "",
          "type": "bytes4"
        }
      ],
      "stateMutability": "nonpayable",
      "type": "function"
    },
    {
      "inputs": [
        {
          "internalType": "uint256",
          "name": "tokenId",
          "type": "uint256"
        }
      ],
      "name": "ownerOf",
      "outputs": [
        {
          "internalType": "address",
          "name": "",
          "type": "address"
        }
      ],
      "stateMutability": "view",
      "type": "function"
    },
    {
      "inputs": [],
      "name": "perSize",
      "outputs": [
        {
          "internalType": "uint256",
          "name": "",
          "type": "uint256"
        }
      ],
      "stateMutability": "view",
      "type": "function"
    },
    {
      "inputs": [
        {
          "internalType": "uint256",
          "name": "x",
          "type": "uint256"
        },
        {
          "internalType": "uint256",
          "name": "y",
          "type": "uint256"
        },
        {
          "internalType": "uint256",
          "name": "utilId",
          "type": "uint256"
        }
      ],
      "name": "placeItem",
      "outputs": [],
      "stateMutability": "nonpayable",
      "type": "function"
    },
    {
      "inputs": [
        {
          "internalType": "uint256[]",
          "name": "x",
          "type": "uint256[]"
        },
        {
          "internalType": "uint256[]",
          "name": "y",
          "type": "uint256[]"
        },
        {
          "internalType": "uint256[]",
          "name": "utilId",
          "type": "uint256[]"
        }
      ],
      "name": "placeItems",
      "outputs": [],
      "stateMutability": "nonpayable",
      "type": "function"
    },
    {
      "inputs": [
        {
          "internalType": "uint256",
          "name": "x",
          "type": "uint256"
        },
        {
          "internalType": "uint256",
          "name": "y",
          "type": "uint256"
        }
      ],
      "name": "removeItem",
      "outputs": [],
      "stateMutability": "nonpayable",
      "type": "function"
    },
    {
      "inputs": [
        {
          "internalType": "address",
          "name": "from",
          "type": "address"
        },
        {
          "internalType": "address",
          "name": "to",
          "type": "address"
        },
        {
          "internalType": "uint256",
          "name": "tokenId",
          "type": "uint256"
        }
      ],
      "name": "safeTransferFrom",
      "outputs": [],
      "stateMutability": "nonpayable",
      "type": "function"
    },
    {
      "inputs": [
        {
          "internalType": "address",
          "name": "from",
          "type": "address"
        },
        {
          "internalType": "address",
          "name": "to",
          "type": "address"
        },
        {
          "internalType": "uint256",
          "name": "tokenId",
          "type": "uint256"
        },
        {
          "internalType": "bytes",
          "name": "data",
          "type": "bytes"
        }
      ],
      "name": "safeTransferFrom",
      "outputs": [],
      "stateMutability": "nonpayable",
      "type": "function"
    },
    {
      "inputs": [
        {
          "internalType": "address",
          "name": "operator",
          "type": "address"
        },
        {
          "internalType": "bool",
          "name": "approved",
          "type": "bool"
        }
      ],
      "name": "setApprovalForAll",
      "outputs": [],
      "stateMutability": "nonpayable",
      "type": "function"
    },
    {
      "inputs": [],
      "name": "size",
      "outputs": [
        {
          "internalType": "uint256",
          "name": "",
          "type": "uint256"
        }
      ],
      "stateMutability": "view",
      "type": "function"
    },
    {
      "inputs": [
        {
          "internalType": "bytes4",
          "name": "interfaceId",
          "type": "bytes4"
        }
      ],
      "name": "supportsInterface",
      "outputs": [
        {
          "internalType": "bool",
          "name": "",
          "type": "bool"
        }
      ],
      "stateMutability": "view",
      "type": "function"
    },
    {
      "inputs": [],
      "name": "symbol",
      "outputs": [
        {
          "internalType": "string",
          "name": "",
          "type": "string"
        }
      ],
      "stateMutability": "view",
      "type": "function"
    },
    {
      "inputs": [
        {
          "internalType": "uint256",
          "name": "id",
          "type": "uint256"
        }
      ],
      "name": "tokenURI",
      "outputs": [
        {
          "internalType": "string",
          "name": "",
          "type": "string"
        }
      ],
      "stateMutability": "view",
      "type": "function"
    },
    {
      "inputs": [
        {
          "internalType": "address",
          "name": "from",
          "type": "address"
        },
        {
          "internalType": "address",
          "name": "to",
          "type": "address"
        },
        {
          "internalType": "uint256",
          "name": "tokenId",
          "type": "uint256"
        }
      ],
      "name": "transferFrom",
      "outputs": [],
      "stateMutability": "nonpayable",
      "type": "function"
    },
    {
      "inputs": [
        {
          "internalType": "uint256",
          "name": "x",
          "type": "uint256"
        },
        {
          "internalType": "uint256",
          "name": "y",
          "type": "uint256"
        },
        {
          "internalType": "uint256",
          "name": "utilId",
          "type": "uint256"
        }
      ],
      "name": "updateItem",
      "outputs": [],
      "stateMutability": "nonpayable",
      "type": "function"
    },
    {
      "inputs": [
        {
          "internalType": "uint256[]",
          "name": "x",
          "type": "uint256[]"
        },
        {
          "internalType": "uint256[]",
          "name": "y",
          "type": "uint256[]"
        },
        {
          "internalType": "uint256[]",
          "name": "utilId",
          "type": "uint256[]"
        }
      ],
      "name": "updateItems",
      "outputs": [],
      "stateMutability": "nonpayable",
      "type": "function"
    },
    {
      "inputs": [],
      "name": "utilCount",
      "outputs": [
        {
          "internalType": "uint256",
          "name": "",
          "type": "uint256"
        }
      ],
      "stateMutability": "view",
      "type": "function"
    },
    {
      "inputs": [],
      "name": "utilsAddress",
      "outputs": [
        {
          "internalType": "address",
          "name": "",
          "type": "address"
        }
      ],
      "stateMutability": "view",
      "type": "function"
    }
  ],
  "transactionHash": "0xb20b9f373b93f40e0766a27c70a5564cb51728a9da31e5b54e30ce66e793eb29",
  "args": [
    15,
    5,
    "https://www.example.com/map/",
    "0x1e32B261781Ed5aD7dA316f61074864De0a88eC7",
    "0x2eD3dDeEd626db4168180D07B4f1FACa88434cd0"
  ],
  "numDeployments": 1,
  "solcInputHash": "b0714aa567f667d1bdb5fd8234fe88af",
  "bytecode": "0x60a06040523480156200001157600080fd5b506040516200227638038062002276833981016040819052620000349162000236565b60408051808201825260038082526204d61760ec1b602080840191825284518086019095529184526204d41560ec1b918401919091526001600160a01b03841660805281519192916200008a916000916200015d565b508051620000a09060019060208401906200015d565b50505084600003620000c55760405163c459d23f60e01b815260040160405180910390fd5b83600003620000e757604051630c110df560e41b815260040160405180910390fd5b60068590556007849055620000fd84866200034f565b156200011c57604051632b0baa0760e11b815260040160405180910390fd5b8251620001319060099060208601906200015d565b5050600b80546001600160a01b0319166001600160a01b039290921691909117905550620003ae915050565b8280546200016b9062000372565b90600052602060002090601f0160209004810192826200018f5760008555620001da565b82601f10620001aa57805160ff1916838001178555620001da565b82800160010185558215620001da579182015b82811115620001da578251825591602001919060010190620001bd565b50620001e8929150620001ec565b5090565b5b80821115620001e85760008155600101620001ed565b634e487b7160e01b600052604160045260246000fd5b80516001600160a01b03811681146200023157600080fd5b919050565b600080600080600060a086880312156200024f57600080fd5b855160208088015160408901519297509550906001600160401b03808211156200027857600080fd5b818901915089601f8301126200028d57600080fd5b815181811115620002a257620002a262000203565b604051601f8201601f19908116603f01168101908382118183101715620002cd57620002cd62000203565b816040528281528c86848701011115620002e657600080fd5b600093505b828410156200030a5784840186015181850187015292850192620002eb565b828411156200031c5760008684830101525b809850505050505050620003336060870162000219565b9150620003436080870162000219565b90509295509295909350565b6000826200036d57634e487b7160e01b600052601260045260246000fd5b500690565b600181811c908216806200038757607f821691505b602082108103620003a857634e487b7160e01b600052602260045260246000fd5b50919050565b608051611ea5620003d16000396000818161032201526114e80152611ea56000f3fe608060405234801561001057600080fd5b50600436106101e55760003560e01c8063870fc3471161010f578063b88d4fde116100a2578063d7bce65811610071578063d7bce658146104a1578063e985e9c5146104aa578063f23a6e61146104e6578063fb9bb97f1461050557600080fd5b8063b88d4fde1461043a578063baacbe9b1461044d578063bc197c8114610456578063c87b56dd1461048e57600080fd5b80639abc8320116100de5780639abc8320146103eb578063a22cb465146103f3578063a90b912814610406578063ae9deae41461043157600080fd5b8063870fc347146103b4578063949d225d146103c757806395d89b41146103d057806395f5b17a146103d857600080fd5b806323b872dd11610187578063572b6c0511610156578063572b6c05146103125780636352211e1461035257806370a0823114610365578063861e46561461037857600080fd5b806323b872dd146102c657806342842e0e146102d9578063512c4aaf146102ec578063539447d4146102ff57600080fd5b8063095ea7b3116101c3578063095ea7b3146102525780630d0637b31461026757806319579a541461027a5780631b2ef1ca146102b357600080fd5b806301ffc9a7146101ea57806306fdde0314610212578063081812fc14610227575b600080fd5b6101fd6101f8366004611646565b610518565b60405190151581526020015b60405180910390f35b61021a61056a565b60405161020991906116c2565b61023a6102353660046116d5565b6105fc565b6040516001600160a01b039091168152602001610209565b61026561026036600461170a565b610623565b005b6102656102753660046117fb565b61074f565b6102a5610288366004611883565b600c60209081526000928352604080842090915290825290205481565b604051908152602001610209565b6102a56102c1366004611883565b61080d565b6102656102d43660046118a5565b610920565b6102656102e73660046118a5565b610958565b600b5461023a906001600160a01b031681565b61026561030d3660046118e1565b610973565b6101fd61032036600461190d565b7f00000000000000000000000000000000000000000000000000000000000000006001600160a01b0390811691161490565b61023a6103603660046116d5565b610990565b6102a561037336600461190d565b6109f0565b61039f6103863660046116d5565b600d602052600090815260409020805460019091015482565b60408051928352602083019190915201610209565b6102656103c2366004611883565b610a76565b6102a560065481565b61021a610bcc565b6102656103e63660046118e1565b610bdb565b61021a610d89565b610265610401366004611928565b610e17565b6102a5610414366004611883565b600e60209081526000928352604080842090915290825290205481565b6102a560075481565b6102656104483660046119d4565b610e2d565b6102a5600a5481565b610475610464366004611a3c565b63bc197c8160e01b95945050505050565b6040516001600160e01b03199091168152602001610209565b61021a61049c3660046116d5565b610e66565b6102a560085481565b6101fd6104b8366004611ae6565b6001600160a01b03918216600090815260056020908152604080832093909416825291909152205460ff1690565b6104756104f4366004611b19565b63f23a6e6160e01b95945050505050565b6102656105133660046117fb565b610e9a565b60006001600160e01b031982166380ac58cd60e01b148061054957506001600160e01b03198216635b5e139f60e01b145b8061056457506301ffc9a760e01b6001600160e01b03198316145b92915050565b60606000805461057990611b7e565b80601f01602080910402602001604051908101604052809291908181526020018280546105a590611b7e565b80156105f25780601f106105c7576101008083540402835291602001916105f2565b820191906000526020600020905b8154815290600101906020018083116105d557829003601f168201915b5050505050905090565b600061060782610f52565b506000908152600460205260409020546001600160a01b031690565b600061062e82610990565b9050806001600160a01b0316836001600160a01b0316036106a05760405162461bcd60e51b815260206004820152602160248201527f4552433732313a20617070726f76616c20746f2063757272656e74206f776e656044820152603960f91b60648201526084015b60405180910390fd5b806001600160a01b03166106b2610fb4565b6001600160a01b031614806106ce57506106ce816104b8610fb4565b6107405760405162461bcd60e51b815260206004820152603d60248201527f4552433732313a20617070726f76652063616c6c6572206973206e6f7420746f60448201527f6b656e206f776e6572206f7220617070726f76656420666f7220616c6c0000006064820152608401610697565b61074a8383610fc3565b505050565b81518351146107715760405163251f56a160e21b815260040160405180910390fd5b80518351146107935760405163251f56a160e21b815260040160405180910390fd5b60005b8351811015610807576107f58482815181106107b4576107b4611bb8565b60200260200101518483815181106107ce576107ce611bb8565b60200260200101518484815181106107e8576107e8611bb8565b6020026020010151610bdb565b806107ff81611be4565b915050610796565b50505050565b600060075460065461081f9190611bfd565b831061083e5760405163c24c736760e01b815260040160405180910390fd5b60075460065461084e9190611bfd565b821061086d57604051634665aadb60e11b815260040160405180910390fd5b6000838152600c60209081526040808320858452909152902054156108a5576040516306a9893b60e51b815260040160405180910390fd5b6001600860008282546108b89190611c1f565b90915550506008546000848152600c60209081526040808320868452825280832084905580518082018252878152808301878152948452600d90925290912090518155905160019091015561091661090e610fb4565b600854611031565b5060085492915050565b61093161092b610fb4565b826111bc565b61094d5760405162461bcd60e51b815260040161069790611c37565b61074a83838361123b565b61074a83838360405180602001604052806000815250610e2d565b806000036109855761074a8383610a76565b61074a838383610bdb565b6000818152600260205260408120546001600160a01b0316806105645760405162461bcd60e51b8152602060048201526018602482015277115490cdcc8c4e881a5b9d985b1a59081d1bdad95b88125160421b6044820152606401610697565b60006001600160a01b038216610a5a5760405162461bcd60e51b815260206004820152602960248201527f4552433732313a2061646472657373207a65726f206973206e6f7420612076616044820152683634b21037bbb732b960b91b6064820152608401610697565b506001600160a01b031660009081526003602052604090205490565b610abd600c600060075485610a8b9190611bfd565b8152602001908152602001600020600060075484610aa99190611bfd565b815260200190815260200160002054610990565b6001600160a01b0316610ace610fb4565b6001600160a01b031614610af5576040516330cd747160e01b815260040160405180910390fd5b600b546000838152600e602090815260408083208584529091529020546001600160a01b039091169015610baf57806001600160a01b031663f242432a30610b3b610fb4565b6000878152600e60209081526040808320898452909152908190205490516001600160e01b031960e086901b168152610b7c93929190600190600401611c84565b600060405180830381600087803b158015610b9657600080fd5b505af1158015610baa573d6000803e3d6000fd5b505050505b506000918252600e60209081526040808420928452919052812055565b60606001805461057990611b7e565b610c0e600c600060075486610bf09190611bfd565b8152602001908152602001600020600060075485610aa99190611bfd565b6001600160a01b0316610c1f610fb4565b6001600160a01b031614610c46576040516330cd747160e01b815260040160405180910390fd5b600b546000848152600e602090815260408083208684529091529020546001600160a01b039091169015610d0057806001600160a01b031663f242432a30610c8c610fb4565b6000888152600e602090815260408083208a8452909152908190205490516001600160e01b031960e086901b168152610ccd93929190600190600401611c84565b600060405180830381600087803b158015610ce757600080fd5b505af1158015610cfb573d6000803e3d6000fd5b505050505b806001600160a01b031663f242432a610d17610fb4565b308560016040518563ffffffff1660e01b8152600401610d3a9493929190611c84565b600060405180830381600087803b158015610d5457600080fd5b505af1158015610d68573d6000803e3d6000fd5b50505060009485525050600e60209081526040808520938552929052912055565b60098054610d9690611b7e565b80601f0160208091040260200160405190810160405280929190818152602001828054610dc290611b7e565b8015610e0f5780601f10610de457610100808354040283529160200191610e0f565b820191906000526020600020905b815481529060010190602001808311610df257829003601f168201915b505050505081565b610e29610e22610fb4565b838361139f565b5050565b610e3e610e38610fb4565b836111bc565b610e5a5760405162461bcd60e51b815260040161069790611c37565b6108078484848461146d565b60606009610e73836114a0565b604051602001610e84929190611cd8565b6040516020818303038152906040529050919050565b8151835114610ebc5760405163251f56a160e21b815260040160405180910390fd5b8051835114610ede5760405163251f56a160e21b815260040160405180910390fd5b60005b835181101561080757610f40848281518110610eff57610eff611bb8565b6020026020010151848381518110610f1957610f19611bb8565b6020026020010151848481518110610f3357610f33611bb8565b6020026020010151610973565b80610f4a81611be4565b915050610ee1565b6000818152600260205260409020546001600160a01b0316610fb15760405162461bcd60e51b8152602060048201526018602482015277115490cdcc8c4e881a5b9d985b1a59081d1bdad95b88125160421b6044820152606401610697565b50565b6000610fbe6114e4565b905090565b600081815260046020526040902080546001600160a01b0319166001600160a01b0384169081179091558190610ff882610990565b6001600160a01b03167f8c5be1e5ebec7d5bd14f71427d1e84f3dd0314c0f7b2291e5b200ac8c7c3b92560405160405180910390a45050565b6001600160a01b0382166110875760405162461bcd60e51b815260206004820181905260248201527f4552433732313a206d696e7420746f20746865207a65726f20616464726573736044820152606401610697565b6000818152600260205260409020546001600160a01b0316156110ec5760405162461bcd60e51b815260206004820152601c60248201527f4552433732313a20746f6b656e20616c7265616479206d696e746564000000006044820152606401610697565b6000818152600260205260409020546001600160a01b0316156111515760405162461bcd60e51b815260206004820152601c60248201527f4552433732313a20746f6b656e20616c7265616479206d696e746564000000006044820152606401610697565b6001600160a01b038216600081815260036020908152604080832080546001019055848352600290915280822080546001600160a01b0319168417905551839291907fddf252ad1be2c89b69c2b068fc378daa952ba7f163c4a11628f55a4df523b3ef908290a45050565b6000806111c883610990565b9050806001600160a01b0316846001600160a01b0316148061120f57506001600160a01b0380821660009081526005602090815260408083209388168352929052205460ff165b806112335750836001600160a01b0316611228846105fc565b6001600160a01b0316145b949350505050565b826001600160a01b031661124e82610990565b6001600160a01b0316146112745760405162461bcd60e51b815260040161069790611d7e565b6001600160a01b0382166112d65760405162461bcd60e51b8152602060048201526024808201527f4552433732313a207472616e7366657220746f20746865207a65726f206164646044820152637265737360e01b6064820152608401610697565b826001600160a01b03166112e982610990565b6001600160a01b03161461130f5760405162461bcd60e51b815260040161069790611d7e565b600081815260046020908152604080832080546001600160a01b03199081169091556001600160a01b0387811680865260038552838620805460001901905590871680865283862080546001019055868652600290945282852080549092168417909155905184937fddf252ad1be2c89b69c2b068fc378daa952ba7f163c4a11628f55a4df523b3ef91a4505050565b816001600160a01b0316836001600160a01b0316036114005760405162461bcd60e51b815260206004820152601960248201527f4552433732313a20617070726f766520746f2063616c6c6572000000000000006044820152606401610697565b6001600160a01b03838116600081815260056020908152604080832094871680845294825291829020805460ff191686151590811790915591519182527f17307eab39ab6107e8899845ad3d59bd9653f200f220920489ca2b5937696c31910160405180910390a3505050565b61147884848461123b565b61148484848484611528565b6108075760405162461bcd60e51b815260040161069790611dc3565b606060a06040510180604052602081039150506000815280825b600183039250600a81066030018353600a9004806114ba5750819003601f19909101908152919050565b60007f00000000000000000000000000000000000000000000000000000000000000006001600160a01b03163303611523575060131936013560601c90565b503390565b60006001600160a01b0384163b1561162557836001600160a01b031663150b7a02611551610fb4565b8786866040518563ffffffff1660e01b81526004016115739493929190611e15565b6020604051808303816000875af19250505080156115ae575060408051601f3d908101601f191682019092526115ab91810190611e52565b60015b61160b573d8080156115dc576040519150601f19603f3d011682016040523d82523d6000602084013e6115e1565b606091505b5080516000036116035760405162461bcd60e51b815260040161069790611dc3565b805181602001fd5b6001600160e01b031916630a85bd0160e11b149050611233565b506001949350505050565b6001600160e01b031981168114610fb157600080fd5b60006020828403121561165857600080fd5b813561166381611630565b9392505050565b60005b8381101561168557818101518382015260200161166d565b838111156108075750506000910152565b600081518084526116ae81602086016020860161166a565b601f01601f19169290920160200192915050565b6020815260006116636020830184611696565b6000602082840312156116e757600080fd5b5035919050565b80356001600160a01b038116811461170557600080fd5b919050565b6000806040838503121561171d57600080fd5b611726836116ee565b946020939093013593505050565b634e487b7160e01b600052604160045260246000fd5b604051601f8201601f1916810167ffffffffffffffff8111828210171561177357611773611734565b604052919050565b600082601f83011261178c57600080fd5b8135602067ffffffffffffffff8211156117a8576117a8611734565b8160051b6117b782820161174a565b92835284810182019282810190878511156117d157600080fd5b83870192505b848310156117f0578235825291830191908301906117d7565b979650505050505050565b60008060006060848603121561181057600080fd5b833567ffffffffffffffff8082111561182857600080fd5b6118348783880161177b565b9450602086013591508082111561184a57600080fd5b6118568783880161177b565b9350604086013591508082111561186c57600080fd5b506118798682870161177b565b9150509250925092565b6000806040838503121561189657600080fd5b50508035926020909101359150565b6000806000606084860312156118ba57600080fd5b6118c3846116ee565b92506118d1602085016116ee565b9150604084013590509250925092565b6000806000606084860312156118f657600080fd5b505081359360208301359350604090920135919050565b60006020828403121561191f57600080fd5b611663826116ee565b6000806040838503121561193b57600080fd5b611944836116ee565b91506020830135801515811461195957600080fd5b809150509250929050565b600082601f83011261197557600080fd5b813567ffffffffffffffff81111561198f5761198f611734565b6119a2601f8201601f191660200161174a565b8181528460208386010111156119b757600080fd5b816020850160208301376000918101602001919091529392505050565b600080600080608085870312156119ea57600080fd5b6119f3856116ee565b9350611a01602086016116ee565b925060408501359150606085013567ffffffffffffffff811115611a2457600080fd5b611a3087828801611964565b91505092959194509250565b600080600080600060a08688031215611a5457600080fd5b611a5d866116ee565b9450611a6b602087016116ee565b9350604086013567ffffffffffffffff80821115611a8857600080fd5b611a9489838a0161177b565b94506060880135915080821115611aaa57600080fd5b611ab689838a0161177b565b93506080880135915080821115611acc57600080fd5b50611ad988828901611964565b9150509295509295909350565b60008060408385031215611af957600080fd5b611b02836116ee565b9150611b10602084016116ee565b90509250929050565b600080600080600060a08688031215611b3157600080fd5b611b3a866116ee565b9450611b48602087016116ee565b93506040860135925060608601359150608086013567ffffffffffffffff811115611b7257600080fd5b611ad988828901611964565b600181811c90821680611b9257607f821691505b602082108103611bb257634e487b7160e01b600052602260045260246000fd5b50919050565b634e487b7160e01b600052603260045260246000fd5b634e487b7160e01b600052601160045260246000fd5b600060018201611bf657611bf6611bce565b5060010190565b600082611c1a57634e487b7160e01b600052601260045260246000fd5b500490565b60008219821115611c3257611c32611bce565b500190565b6020808252602d908201527f4552433732313a2063616c6c6572206973206e6f7420746f6b656e206f776e6560408201526c1c881bdc88185c1c1c9bdd9959609a1b606082015260800190565b6001600160a01b0394851681529290931660208301526040820152606081019190915260a06080820181905260009082015260c00190565b60008151611cce81856020860161166a565b9290920192915050565b600080845481600182811c915080831680611cf457607f831692505b60208084108203611d1357634e487b7160e01b86526022600452602486fd5b818015611d275760018114611d3857611d65565b60ff19861689528489019650611d65565b60008b81526020902060005b86811015611d5d5781548b820152908501908301611d44565b505084890196505b505050505050611d758185611cbc565b95945050505050565b60208082526025908201527f4552433732313a207472616e736665722066726f6d20696e636f72726563742060408201526437bbb732b960d91b606082015260800190565b60208082526032908201527f4552433732313a207472616e7366657220746f206e6f6e20455243373231526560408201527131b2b4bb32b91034b6b83632b6b2b73a32b960711b606082015260800190565b6001600160a01b0385811682528416602082015260408101839052608060608201819052600090611e4890830184611696565b9695505050505050565b600060208284031215611e6457600080fd5b81516116638161163056fea2646970667358221220e2e3bffe1b9378b31115aef170405524283a465bc011664cacbd2593fef656e264736f6c634300080d0033",
  "devdoc": {
    "kind": "dev",
    "methods": {
      "approve(address,uint256)": {
        "details": "See {IERC721-approve}."
      },
      "balanceOf(address)": {
        "details": "See {IERC721-balanceOf}."
      },
      "getApproved(uint256)": {
        "details": "See {IERC721-getApproved}."
      },
      "isApprovedForAll(address,address)": {
        "details": "See {IERC721-isApprovedForAll}."
      },
      "name()": {
        "details": "See {IERC721Metadata-name}."
      },
      "ownerOf(uint256)": {
        "details": "See {IERC721-ownerOf}."
      },
      "safeTransferFrom(address,address,uint256)": {
        "details": "See {IERC721-safeTransferFrom}."
      },
      "safeTransferFrom(address,address,uint256,bytes)": {
        "details": "See {IERC721-safeTransferFrom}."
      },
      "setApprovalForAll(address,bool)": {
        "details": "See {IERC721-setApprovalForAll}."
      },
      "supportsInterface(bytes4)": {
        "details": "See {IERC165-supportsInterface}."
      },
      "symbol()": {
        "details": "See {IERC721Metadata-symbol}."
      },
      "transferFrom(address,address,uint256)": {
        "details": "See {IERC721-transferFrom}."
      }
    },
    "version": 1
  },
  "userdoc": {
    "kind": "user",
    "methods": {},
    "version": 1
  },
  "storageLayout": {
    "storage": [
      {
        "astId": 1987,
        "contract": "src/Map.sol:Map",
        "label": "_name",
        "offset": 0,
        "slot": "0",
        "type": "t_string_storage"
      },
      {
        "astId": 1989,
        "contract": "src/Map.sol:Map",
        "label": "_symbol",
        "offset": 0,
        "slot": "1",
        "type": "t_string_storage"
      },
      {
        "astId": 1993,
        "contract": "src/Map.sol:Map",
        "label": "_owners",
        "offset": 0,
        "slot": "2",
        "type": "t_mapping(t_uint256,t_address)"
      },
      {
        "astId": 1997,
        "contract": "src/Map.sol:Map",
        "label": "_balances",
        "offset": 0,
        "slot": "3",
        "type": "t_mapping(t_address,t_uint256)"
      },
      {
        "astId": 2001,
        "contract": "src/Map.sol:Map",
        "label": "_tokenApprovals",
        "offset": 0,
        "slot": "4",
        "type": "t_mapping(t_uint256,t_address)"
      },
      {
        "astId": 2007,
        "contract": "src/Map.sol:Map",
        "label": "_operatorApprovals",
        "offset": 0,
        "slot": "5",
        "type": "t_mapping(t_address,t_mapping(t_address,t_bool))"
      },
      {
        "astId": 7135,
        "contract": "src/Map.sol:Map",
        "label": "size",
        "offset": 0,
        "slot": "6",
        "type": "t_uint256"
      },
      {
        "astId": 7137,
        "contract": "src/Map.sol:Map",
        "label": "perSize",
        "offset": 0,
        "slot": "7",
        "type": "t_uint256"
      },
      {
        "astId": 7139,
        "contract": "src/Map.sol:Map",
        "label": "landCount",
        "offset": 0,
        "slot": "8",
        "type": "t_uint256"
      },
      {
        "astId": 7141,
        "contract": "src/Map.sol:Map",
        "label": "baseUri",
        "offset": 0,
        "slot": "9",
        "type": "t_string_storage"
      },
      {
        "astId": 7143,
        "contract": "src/Map.sol:Map",
        "label": "utilCount",
        "offset": 0,
        "slot": "10",
        "type": "t_uint256"
      },
      {
        "astId": 7145,
        "contract": "src/Map.sol:Map",
        "label": "utilsAddress",
        "offset": 0,
        "slot": "11",
        "type": "t_address"
      },
      {
        "astId": 7151,
        "contract": "src/Map.sol:Map",
        "label": "landIds",
        "offset": 0,
        "slot": "12",
        "type": "t_mapping(t_uint256,t_mapping(t_uint256,t_uint256))"
      },
      {
        "astId": 7156,
        "contract": "src/Map.sol:Map",
        "label": "land",
        "offset": 0,
        "slot": "13",
        "type": "t_mapping(t_uint256,t_struct(Land)7133_storage)"
      },
      {
        "astId": 7162,
        "contract": "src/Map.sol:Map",
        "label": "map",
        "offset": 0,
        "slot": "14",
        "type": "t_mapping(t_uint256,t_mapping(t_uint256,t_uint256))"
      }
    ],
    "types": {
      "t_address": {
        "encoding": "inplace",
        "label": "address",
        "numberOfBytes": "20"
      },
      "t_bool": {
        "encoding": "inplace",
        "label": "bool",
        "numberOfBytes": "1"
      },
      "t_mapping(t_address,t_bool)": {
        "encoding": "mapping",
        "key": "t_address",
        "label": "mapping(address => bool)",
        "numberOfBytes": "32",
        "value": "t_bool"
      },
      "t_mapping(t_address,t_mapping(t_address,t_bool))": {
        "encoding": "mapping",
        "key": "t_address",
        "label": "mapping(address => mapping(address => bool))",
        "numberOfBytes": "32",
        "value": "t_mapping(t_address,t_bool)"
      },
      "t_mapping(t_address,t_uint256)": {
        "encoding": "mapping",
        "key": "t_address",
        "label": "mapping(address => uint256)",
        "numberOfBytes": "32",
        "value": "t_uint256"
      },
      "t_mapping(t_uint256,t_address)": {
        "encoding": "mapping",
        "key": "t_uint256",
        "label": "mapping(uint256 => address)",
        "numberOfBytes": "32",
        "value": "t_address"
      },
      "t_mapping(t_uint256,t_mapping(t_uint256,t_uint256))": {
        "encoding": "mapping",
        "key": "t_uint256",
        "label": "mapping(uint256 => mapping(uint256 => uint256))",
        "numberOfBytes": "32",
        "value": "t_mapping(t_uint256,t_uint256)"
      },
      "t_mapping(t_uint256,t_struct(Land)7133_storage)": {
        "encoding": "mapping",
        "key": "t_uint256",
        "label": "mapping(uint256 => struct Map.Land)",
        "numberOfBytes": "32",
        "value": "t_struct(Land)7133_storage"
      },
      "t_mapping(t_uint256,t_uint256)": {
        "encoding": "mapping",
        "key": "t_uint256",
        "label": "mapping(uint256 => uint256)",
        "numberOfBytes": "32",
        "value": "t_uint256"
      },
      "t_string_storage": {
        "encoding": "bytes",
        "label": "string",
        "numberOfBytes": "32"
      },
      "t_struct(Land)7133_storage": {
        "encoding": "inplace",
        "label": "struct Map.Land",
        "members": [
          {
            "astId": 7130,
            "contract": "src/Map.sol:Map",
            "label": "xIndex",
            "offset": 0,
            "slot": "0",
            "type": "t_uint256"
          },
          {
            "astId": 7132,
            "contract": "src/Map.sol:Map",
            "label": "yIndex",
            "offset": 0,
            "slot": "1",
            "type": "t_uint256"
          }
        ],
        "numberOfBytes": "64"
      },
      "t_uint256": {
        "encoding": "inplace",
        "label": "uint256",
        "numberOfBytes": "32"
      }
    }
  }
}