{
  "address": "0x1e32B261781Ed5aD7dA316f61074864De0a88eC7",
  "abi": [
    {
      "inputs": [
        {
          "internalType": "string",
          "name": "_baseUri",
          "type": "string"
        },
        {
          "internalType": "address",
          "name": "trustedForwarder",
          "type": "address"
        },
        {
          "internalType": "address",
          "name": "gateway_",
          "type": "address"
        },
        {
          "internalType": "address",
          "name": "gasReceiver_",
          "type": "address"
        }
      ],
      "stateMutability": "nonpayable",
      "type": "constructor"
    },
    {
      "inputs": [],
      "name": "CrossChainNotSupported",
      "type": "error"
    },
    {
      "inputs": [],
      "name": "InsufficientBalance",
      "type": "error"
    },
    {
      "inputs": [],
      "name": "InvalidAddress",
      "type": "error"
    },
    {
      "inputs": [],
      "name": "InvalidChain",
      "type": "error"
    },
    {
      "inputs": [],
      "name": "NotApprovedByGateway",
      "type": "error"
    },
    {
      "anonymous": false,
      "inputs": [
        {
          "indexed": true,
          "internalType": "address",
          "name": "account",
          "type": "address"
        },
        {
          "indexed": true,
          "internalType": "address",
          "name": "operator",
          "type": "address"
        },
        {
          "indexed": false,
          "internalType": "bool",
          "name": "approved",
          "type": "bool"
        }
      ],
      "name": "ApprovalForAll",
      "type": "event"
    },
    {
      "anonymous": false,
      "inputs": [
        {
          "indexed": true,
          "internalType": "address",
          "name": "previousOwner",
          "type": "address"
        },
        {
          "indexed": true,
          "internalType": "address",
          "name": "newOwner",
          "type": "address"
        }
      ],
      "name": "OwnershipTransferred",
      "type": "event"
    },
    {
      "anonymous": false,
      "inputs": [
        {
          "indexed": true,
          "internalType": "address",
          "name": "operator",
          "type": "address"
        },
        {
          "indexed": true,
          "internalType": "address",
          "name": "from",
          "type": "address"
        },
        {
          "indexed": true,
          "internalType": "address",
          "name": "to",
          "type": "address"
        },
        {
          "indexed": false,
          "internalType": "uint256[]",
          "name": "ids",
          "type": "uint256[]"
        },
        {
          "indexed": false,
          "internalType": "uint256[]",
          "name": "values",
          "type": "uint256[]"
        }
      ],
      "name": "TransferBatch",
      "type": "event"
    },
    {
      "anonymous": false,
      "inputs": [
        {
          "indexed": true,
          "internalType": "address",
          "name": "operator",
          "type": "address"
        },
        {
          "indexed": true,
          "internalType": "address",
          "name": "from",
          "type": "address"
        },
        {
          "indexed": true,
          "internalType": "address",
          "name": "to",
          "type": "address"
        },
        {
          "indexed": false,
          "internalType": "uint256",
          "name": "id",
          "type": "uint256"
        },
        {
          "indexed": false,
          "internalType": "uint256",
          "name": "value",
          "type": "uint256"
        }
      ],
      "name": "TransferSingle",
      "type": "event"
    },
    {
      "anonymous": false,
      "inputs": [
        {
          "indexed": false,
          "internalType": "string",
          "name": "value",
          "type": "string"
        },
        {
          "indexed": true,
          "internalType": "uint256",
          "name": "id",
          "type": "uint256"
        }
      ],
      "name": "URI",
      "type": "event"
    },
    {
      "inputs": [
        {
          "internalType": "address",
          "name": "account",
          "type": "address"
        },
        {
          "internalType": "uint256",
          "name": "id",
          "type": "uint256"
        }
      ],
      "name": "balanceOf",
      "outputs": [
        {
          "internalType": "uint256",
          "name": "",
          "type": "uint256"
        }
      ],
      "stateMutability": "view",
      "type": "function"
    },
    {
      "inputs": [
        {
          "internalType": "address[]",
          "name": "accounts",
          "type": "address[]"
        },
        {
          "internalType": "uint256[]",
          "name": "ids",
          "type": "uint256[]"
        }
      ],
      "name": "balanceOfBatch",
      "outputs": [
        {
          "internalType": "uint256[]",
          "name": "",
          "type": "uint256[]"
        }
      ],
      "stateMutability": "view",
      "type": "function"
    },
    {
      "inputs": [],
      "name": "baseUri",
      "outputs": [
        {
          "internalType": "string",
          "name": "",
          "type": "string"
        }
      ],
      "stateMutability": "view",
      "type": "function"
    },
    {
      "inputs": [
        {
          "internalType": "string",
          "name": "",
          "type": "string"
        }
      ],
      "name": "chains",
      "outputs": [
        {
          "internalType": "string",
          "name": "",
          "type": "string"
        }
      ],
      "stateMutability": "view",
      "type": "function"
    },
    {
      "inputs": [
        {
          "internalType": "string",
          "name": "destinationChain",
          "type": "string"
        },
        {
          "internalType": "uint256",
          "name": "tokenId",
          "type": "uint256"
        },
        {
          "internalType": "uint256",
          "name": "amount",
          "type": "uint256"
        }
      ],
      "name": "crossChainTransfer",
      "outputs": [],
      "stateMutability": "payable",
      "type": "function"
    },
    {
      "inputs": [
        {
          "internalType": "bytes32",
          "name": "commandId",
          "type": "bytes32"
        },
        {
          "internalType": "string",
          "name": "sourceChain",
          "type": "string"
        },
        {
          "internalType": "string",
          "name": "sourceAddress",
          "type": "string"
        },
        {
          "internalType": "bytes",
          "name": "payload",
          "type": "bytes"
        }
      ],
      "name": "execute",
      "outputs": [],
      "stateMutability": "nonpayable",
      "type": "function"
    },
    {
      "inputs": [
        {
          "internalType": "bytes32",
          "name": "commandId",
          "type": "bytes32"
        },
        {
          "internalType": "string",
          "name": "sourceChain",
          "type": "string"
        },
        {
          "internalType": "string",
          "name": "sourceAddress",
          "type": "string"
        },
        {
          "internalType": "bytes",
          "name": "payload",
          "type": "bytes"
        },
        {
          "internalType": "string",
          "name": "tokenSymbol",
          "type": "string"
        },
        {
          "internalType": "uint256",
          "name": "amount",
          "type": "uint256"
        }
      ],
      "name": "executeWithToken",
      "outputs": [],
      "stateMutability": "nonpayable",
      "type": "function"
    },
    {
      "inputs": [],
      "name": "gasService",
      "outputs": [
        {
          "internalType": "contract IAxelarGasService",
          "name": "",
          "type": "address"
        }
      ],
      "stateMutability": "view",
      "type": "function"
    },
    {
      "inputs": [],
      "name": "gateway",
      "outputs": [
        {
          "internalType": "contract IAxelarGateway",
          "name": "",
          "type": "address"
        }
      ],
      "stateMutability": "view",
      "type": "function"
    },
    {
      "inputs": [
        {
          "internalType": "address",
          "name": "account",
          "type": "address"
        },
        {
          "internalType": "address",
          "name": "operator",
          "type": "address"
        }
      ],
      "name": "isApprovedForAll",
      "outputs": [
        {
          "internalType": "bool",
          "name": "",
          "type": "bool"
        }
      ],
      "stateMutability": "view",
      "type": "function"
    },
    {
      "inputs": [
        {
          "internalType": "address",
          "name": "forwarder",
          "type": "address"
        }
      ],
      "name": "isTrustedForwarder",
      "outputs": [
        {
          "internalType": "bool",
          "name": "",
          "type": "bool"
        }
      ],
      "stateMutability": "view",
      "type": "function"
    },
    {
      "inputs": [
        {
          "internalType": "uint256",
          "name": "amount",
          "type": "uint256"
        }
      ],
      "name": "mint",
      "outputs": [],
      "stateMutability": "nonpayable",
      "type": "function"
    },
    {
      "inputs": [
        {
          "internalType": "uint256",
          "name": "id",
          "type": "uint256"
        },
        {
          "internalType": "uint256",
          "name": "amount",
          "type": "uint256"
        }
      ],
      "name": "mintMore",
      "outputs": [],
      "stateMutability": "nonpayable",
      "type": "function"
    },
    {
      "inputs": [],
      "name": "owner",
      "outputs": [
        {
          "internalType": "address",
          "name": "",
          "type": "address"
        }
      ],
      "stateMutability": "view",
      "type": "function"
    },
    {
      "inputs": [],
      "name": "renounceOwnership",
      "outputs": [],
      "stateMutability": "nonpayable",
      "type": "function"
    },
    {
      "inputs": [
        {
          "internalType": "address",
          "name": "from",
          "type": "address"
        },
        {
          "internalType": "address",
          "name": "to",
          "type": "address"
        },
        {
          "internalType": "uint256[]",
          "name": "ids",
          "type": "uint256[]"
        },
        {
          "internalType": "uint256[]",
          "name": "amounts",
          "type": "uint256[]"
        },
        {
          "internalType": "bytes",
          "name": "data",
          "type": "bytes"
        }
      ],
      "name": "safeBatchTransferFrom",
      "outputs": [],
      "stateMutability": "nonpayable",
      "type": "function"
    },
    {
      "inputs": [
        {
          "internalType": "address",
          "name": "from",
          "type": "address"
        },
        {
          "internalType": "address",
          "name": "to",
          "type": "address"
        },
        {
          "internalType": "uint256",
          "name": "id",
          "type": "uint256"
        },
        {
          "internalType": "uint256",
          "name": "amount",
          "type": "uint256"
        },
        {
          "internalType": "bytes",
          "name": "data",
          "type": "bytes"
        }
      ],
      "name": "safeTransferFrom",
      "outputs": [],
      "stateMutability": "nonpayable",
      "type": "function"
    },
    {
      "inputs": [
        {
          "internalType": "address",
          "name": "operator",
          "type": "address"
        },
        {
          "internalType": "bool",
          "name": "approved",
          "type": "bool"
        }
      ],
      "name": "setApprovalForAll",
      "outputs": [],
      "stateMutability": "nonpayable",
      "type": "function"
    },
    {
      "inputs": [
        {
          "internalType": "string",
          "name": "chain",
          "type": "string"
        },
        {
          "internalType": "string",
          "name": "addr",
          "type": "string"
        }
      ],
      "name": "setChain",
      "outputs": [],
      "stateMutability": "nonpayable",
      "type": "function"
    },
    {
      "inputs": [
        {
          "internalType": "bytes4",
          "name": "interfaceId",
          "type": "bytes4"
        }
      ],
      "name": "supportsInterface",
      "outputs": [
        {
          "internalType": "bool",
          "name": "",
          "type": "bool"
        }
      ],
      "stateMutability": "view",
      "type": "function"
    },
    {
      "inputs": [
        {
          "internalType": "address",
          "name": "newOwner",
          "type": "address"
        }
      ],
      "name": "transferOwnership",
      "outputs": [],
      "stateMutability": "nonpayable",
      "type": "function"
    },
    {
      "inputs": [
        {
          "internalType": "uint256",
          "name": "id",
          "type": "uint256"
        }
      ],
      "name": "uri",
      "outputs": [
        {
          "internalType": "string",
          "name": "",
          "type": "string"
        }
      ],
      "stateMutability": "view",
      "type": "function"
    },
    {
      "inputs": [],
      "name": "utilCount",
      "outputs": [
        {
          "internalType": "uint256",
          "name": "",
          "type": "uint256"
        }
      ],
      "stateMutability": "view",
      "type": "function"
    }
  ],
  "transactionHash": "0xbf3b49143ae3757f2c899e84d8f983ae386971897c8501143a309c08de759355",
  "args": [
    "https://www.example.com/utils/",
    "0x2eD3dDeEd626db4168180D07B4f1FACa88434cd0",
    "0xBF62ef1486468a6bd26Dd669C06db43dEd5B849B",
    "0xbE406F0189A0B4cf3A05C286473D23791Dd44Cc6"
  ],
  "numDeployments": 1,
  "solcInputHash": "8863dcb99208b33517d2f5a763651a3e",
  "bytecode": "0x60e06040523480156200001157600080fd5b5060405162002c7738038062002c7783398101604081905262000034916200025f565b6001600160a01b03831660805281846200004e81620000c3565b50620000636200005d620000dc565b620000f8565b6001600160a01b0381166200008b5760405163e6c4247b60e01b815260040160405180910390fd5b6001600160a01b031660a0528351620000ac90600490602087019062000186565b506001600160a01b031660c05250620003b1915050565b8051620000d890600290602084019062000186565b5050565b6000620000f36200014a60201b62000e441760201c565b905090565b600380546001600160a01b038381166001600160a01b0319831681179093556040519116919082907f8be0079c531659141344cd1fd0a4f28419497f9722a3daafe3b4186f6b6457e090600090a35050565b6080516000906001600160a01b031633036200016d575060131936013560601c90565b620000f36200018260201b62000e901760201c565b3390565b828054620001949062000375565b90600052602060002090601f016020900481019282620001b8576000855562000203565b82601f10620001d357805160ff191683800117855562000203565b8280016001018555821562000203579182015b8281111562000203578251825591602001919060010190620001e6565b506200021192915062000215565b5090565b5b8082111562000211576000815560010162000216565b634e487b7160e01b600052604160045260246000fd5b80516001600160a01b03811681146200025a57600080fd5b919050565b600080600080608085870312156200027657600080fd5b84516001600160401b03808211156200028e57600080fd5b818701915087601f830112620002a357600080fd5b815181811115620002b857620002b86200022c565b604051601f8201601f19908116603f01168101908382118183101715620002e357620002e36200022c565b81604052828152602093508a848487010111156200030057600080fd5b600091505b8282101562000324578482018401518183018501529083019062000305565b82821115620003365760008484830101525b97506200034891505087820162000242565b945050506200035a6040860162000242565b91506200036a6060860162000242565b905092959194509250565b600181811c908216806200038a57607f821691505b602082108103620003ab57634e487b7160e01b600052602260045260246000fd5b50919050565b60805160a05160c05161286562000412600039600081816103410152818161096801528181610b1d01526110d70152600081816101e601528181610617015281816107580152610ba80152600081816102ec0152610e4801526128656000f3fe60806040526004361061013f5760003560e01c80636a22d8cc116100b6578063a22cb4651161006f578063a22cb465146103eb578063baacbe9b1461040b578063e985e9c514610421578063f242432a1461046a578063f2fde38b1461048a578063f567ad9d146104aa57600080fd5b80636a22d8cc1461032f578063715018a6146103635780638a39f0f7146103785780638da5cb5b146103985780639abc8320146103b6578063a0712d68146103cb57600080fd5b80632eb2c2d6116101085780632eb2c2d61461024257806349160658146102625780634e1273f4146102825780634f7c055e146102af578063572b6c05146102cf5780635c6eaafd1461031c57600080fd5b8062fdd58e1461014457806301ffc9a7146101775780630e89341c146101a7578063116191b6146101d45780631a98b2e014610220575b600080fd5b34801561015057600080fd5b5061016461015f366004611a64565b6104ca565b6040519081526020015b60405180910390f35b34801561018357600080fd5b50610197610192366004611aa6565b610560565b604051901515815260200161016e565b3480156101b357600080fd5b506101c76101c2366004611aca565b6105b2565b60405161016e9190611b3b565b3480156101e057600080fd5b506102087f000000000000000000000000000000000000000000000000000000000000000081565b6040516001600160a01b03909116815260200161016e565b34801561022c57600080fd5b5061024061023b366004611b96565b6105e6565b005b34801561024e57600080fd5b5061024061025d366004611db8565b6106c9565b34801561026e57600080fd5b5061024061027d366004611e65565b610727565b34801561028e57600080fd5b506102a261029d366004611f08565b61080f565b60405161016e919061200f565b3480156102bb57600080fd5b506102406102ca366004612022565b610938565b3480156102db57600080fd5b506101976102ea366004612044565b7f00000000000000000000000000000000000000000000000000000000000000006001600160a01b0390811691161490565b61024061032a366004612061565b610966565b34801561033b57600080fd5b506102087f000000000000000000000000000000000000000000000000000000000000000081565b34801561036f57600080fd5b50610240610c1d565b34801561038457600080fd5b506101c76103933660046120b1565b610c31565b3480156103a457600080fd5b506003546001600160a01b0316610208565b3480156103c257600080fd5b506101c7610cd6565b3480156103d757600080fd5b506102406103e6366004611aca565b610ce3565b3480156103f757600080fd5b506102406104063660046120fb565b610d2b565b34801561041757600080fd5b5061016460055481565b34801561042d57600080fd5b5061019761043c366004612134565b6001600160a01b03918216600090815260016020908152604080832093909416825291909152205460ff1690565b34801561047657600080fd5b50610240610485366004612162565b610d3d565b34801561049657600080fd5b506102406104a5366004612044565b610d94565b3480156104b657600080fd5b506102406104c53660046121ca565b610e0a565b60006001600160a01b03831661053a5760405162461bcd60e51b815260206004820152602a60248201527f455243313135353a2061646472657373207a65726f206973206e6f742061207660448201526930b634b21037bbb732b960b11b60648201526084015b60405180910390fd5b506000908152602081815260408083206001600160a01b03949094168352929052205490565b60006001600160e01b03198216636cdb3d1360e11b148061059157506001600160e01b031982166303a24d0760e21b145b806105ac57506301ffc9a760e01b6001600160e01b03198316145b92915050565b606060046105bf83610e94565b6040516020016105d0929190612305565b6040516020818303038152906040529050919050565b600085856040516105f892919061232a565b604051908190038120631876eed960e01b825291506001600160a01b037f00000000000000000000000000000000000000000000000000000000000000001690631876eed99061065c908e908e908e908e908e9089908d908d908d90600401612363565b6020604051808303816000875af115801561067b573d6000803e3d6000fd5b505050506040513d601f19601f8201168201806040525081019061069f91906123c2565b6106bc57604051631403112d60e21b815260040160405180910390fd5b5050505050505050505050565b6106d1610ee3565b6001600160a01b0316856001600160a01b031614806106f757506106f78561043c610ee3565b6107135760405162461bcd60e51b8152600401610531906123df565b6107208585858585610eed565b5050505050565b6000828260405161073992919061232a565b604051908190038120635f6970c360e01b825291506001600160a01b037f00000000000000000000000000000000000000000000000000000000000000001690635f6970c390610797908b908b908b908b908b90899060040161242d565b6020604051808303816000875af11580156107b6573d6000803e3d6000fd5b505050506040513d601f19601f820116820180604052508101906107da91906123c2565b6107f757604051631403112d60e21b815260040160405180910390fd5b6108058787878787876110d5565b5050505050505050565b606081518351146108745760405162461bcd60e51b815260206004820152602960248201527f455243313135353a206163636f756e747320616e6420696473206c656e677468604482015268040dad2e6dac2e8c6d60bb1b6064820152608401610531565b600083516001600160401b0381111561088f5761088f611c6f565b6040519080825280602002602001820160405280156108b8578160200160208202803683370190505b50905060005b8451811015610930576109038582815181106108dc576108dc61246e565b60200260200101518583815181106108f6576108f661246e565b60200260200101516104ca565b8282815181106109155761091561246e565b60209081029190910101526109298161249a565b90506108be565b509392505050565b6109406111da565b61096261094b610ee3565b838360405180602001604052806000815250611253565b5050565b7f00000000000000000000000000000000000000000000000000000000000000006001600160a01b03166109ad5760405163358ce81d60e21b815260040160405180910390fd5b6000600685856040516109c192919061232a565b908152602001604051809103902080546109da90612232565b80601f0160208091040260200160405190810160405280929190818152602001828054610a0690612232565b8015610a535780601f10610a2857610100808354040283529160200191610a53565b820191906000526020600020905b815481529060010190602001808311610a3657829003601f168201915b505050505090508051600003610a7c5760405163057f3fa760e51b815260040160405180910390fd5b610a8d610a87610ee3565b846104ca565b821115610aad57604051631e9acf1760e31b815260040160405180910390fd5b610abf610ab8610ee3565b8484611372565b60008383610acb610ee3565b6040805160208101949094528301919091526001600160a01b0316606082015260800160408051601f1981840301815291905290503415610b9157604051630c93e3bb60e01b81526001600160a01b037f00000000000000000000000000000000000000000000000000000000000000001690630c93e3bb903490610b5e9030908b908b908990899033906004016124b3565b6000604051808303818588803b158015610b7757600080fd5b505af1158015610b8b573d6000803e3d6000fd5b50505050505b604051631c92115f60e01b81526001600160a01b037f00000000000000000000000000000000000000000000000000000000000000001690631c92115f90610be3908990899087908790600401612513565b600060405180830381600087803b158015610bfd57600080fd5b505af1158015610c11573d6000803e3d6000fd5b50505050505050505050565b610c256111da565b610c2f60006114f9565b565b805160208183018101805160068252928201919093012091528054610c5590612232565b80601f0160208091040260200160405190810160405280929190818152602001828054610c8190612232565b8015610cce5780601f10610ca357610100808354040283529160200191610cce565b820191906000526020600020905b815481529060010190602001808311610cb157829003601f168201915b505050505081565b60048054610c5590612232565b610ceb6111da565b600160056000828254610cfe9190612558565b90915550610d289050610d0f610ee3565b6005548360405180602001604052806000815250611253565b50565b610962610d36610ee3565b838361154b565b610d45610ee3565b6001600160a01b0316856001600160a01b03161480610d6b5750610d6b8561043c610ee3565b610d875760405162461bcd60e51b8152600401610531906123df565b610720858585858561162b565b610d9c6111da565b6001600160a01b038116610e015760405162461bcd60e51b815260206004820152602660248201527f4f776e61626c653a206e6577206f776e657220697320746865207a65726f206160448201526564647265737360d01b6064820152608401610531565b610d28816114f9565b610e126111da565b8181600685604051610e249190612570565b908152604051908190036020019020610e3e9290916119b6565b50505050565b60007f00000000000000000000000000000000000000000000000000000000000000006001600160a01b03163303610e83575060131936013560601c90565b503390565b905090565b90565b3390565b606060a06040510180604052602081039150506000815280825b600183039250600a81066030018353600a900480610eae5750819003601f19909101908152919050565b505050505050505050565b6000610e88610e44565b8151835114610f4f5760405162461bcd60e51b815260206004820152602860248201527f455243313135353a2069647320616e6420616d6f756e7473206c656e677468206044820152670dad2e6dac2e8c6d60c31b6064820152608401610531565b6001600160a01b038416610f755760405162461bcd60e51b81526004016105319061258c565b6000610f7f610ee3565b905060005b8451811015611067576000858281518110610fa157610fa161246e565b602002602001015190506000858381518110610fbf57610fbf61246e565b602090810291909101810151600084815280835260408082206001600160a01b038e16835290935291909120549091508181101561100f5760405162461bcd60e51b8152600401610531906125d1565b6000838152602081815260408083206001600160a01b038e8116855292528083208585039055908b1682528120805484929061104c908490612558565b92505081905550505050806110609061249a565b9050610f84565b50846001600160a01b0316866001600160a01b0316826001600160a01b03167f4a39dc06d4c0dbc64b70af90fd698a233a518aa5d07e595d983b8c0526c8f7fb87876040516110b792919061261b565b60405180910390a46110cd818787878787611755565b505050505050565b7f00000000000000000000000000000000000000000000000000000000000000006001600160a01b031661111c5760405163358ce81d60e21b815260040160405180910390fd5b838360405160200161112f92919061232a565b604051602081830303815290604052805190602001206006878760405161115792919061232a565b90815260200160405180910390206040516020016111759190612649565b60405160208183030381529060405280519060200120146111a95760405163057f3fa760e51b815260040160405180910390fd5b600080806111b984860186612655565b925092509250610ed881848460405180602001604052806000815250611253565b6111e2610ee3565b6001600160a01b03166111fd6003546001600160a01b031690565b6001600160a01b031614610c2f5760405162461bcd60e51b815260206004820181905260248201527f4f776e61626c653a2063616c6c6572206973206e6f7420746865206f776e65726044820152606401610531565b6001600160a01b0384166112b35760405162461bcd60e51b815260206004820152602160248201527f455243313135353a206d696e7420746f20746865207a65726f206164647265736044820152607360f81b6064820152608401610531565b60006112bd610ee3565b905060006112ca856118b0565b905060006112d7856118b0565b90506000868152602081815260408083206001600160a01b038b16845290915281208054879290611309908490612558565b909155505060408051878152602081018790526001600160a01b03808a1692600092918716917fc3d58168c5ae7397731d063d5bbf3d657854427343f4c083240f7aacaa2d0f62910160405180910390a4611369836000898989896118fb565b50505050505050565b6001600160a01b0383166113d45760405162461bcd60e51b815260206004820152602360248201527f455243313135353a206275726e2066726f6d20746865207a65726f206164647260448201526265737360e81b6064820152608401610531565b60006113de610ee3565b905060006113eb846118b0565b905060006113f8846118b0565b60408051602080820183526000918290528882528181528282206001600160a01b038b16835290522054909150848110156114815760405162461bcd60e51b8152602060048201526024808201527f455243313135353a206275726e20616d6f756e7420657863656564732062616c604482015263616e636560e01b6064820152608401610531565b6000868152602081815260408083206001600160a01b038b81168086529184528285208a8703905582518b81529384018a90529092908816917fc3d58168c5ae7397731d063d5bbf3d657854427343f4c083240f7aacaa2d0f62910160405180910390a4604080516020810190915260009052611369565b600380546001600160a01b038381166001600160a01b0319831681179093556040519116919082907f8be0079c531659141344cd1fd0a4f28419497f9722a3daafe3b4186f6b6457e090600090a35050565b816001600160a01b0316836001600160a01b0316036115be5760405162461bcd60e51b815260206004820152602960248201527f455243313135353a2073657474696e6720617070726f76616c20737461747573604482015268103337b91039b2b63360b91b6064820152608401610531565b6001600160a01b03838116600081815260016020908152604080832094871680845294825291829020805460ff191686151590811790915591519182527f17307eab39ab6107e8899845ad3d59bd9653f200f220920489ca2b5937696c31910160405180910390a3505050565b6001600160a01b0384166116515760405162461bcd60e51b81526004016105319061258c565b600061165b610ee3565b90506000611668856118b0565b90506000611675856118b0565b90506000868152602081815260408083206001600160a01b038c168452909152902054858110156116b85760405162461bcd60e51b8152600401610531906125d1565b6000878152602081815260408083206001600160a01b038d8116855292528083208985039055908a168252812080548892906116f5908490612558565b909155505060408051888152602081018890526001600160a01b03808b16928c821692918816917fc3d58168c5ae7397731d063d5bbf3d657854427343f4c083240f7aacaa2d0f62910160405180910390a4610ed8848a8a8a8a8a6118fb565b6001600160a01b0384163b156110cd5760405163bc197c8160e01b81526001600160a01b0385169063bc197c8190611799908990899088908890889060040161268e565b6020604051808303816000875af19250505080156117d4575060408051601f3d908101601f191682019092526117d1918101906126ec565b60015b611880576117e0612709565b806308c379a00361181957506117f4612724565b806117ff575061181b565b8060405162461bcd60e51b81526004016105319190611b3b565b505b60405162461bcd60e51b815260206004820152603460248201527f455243313135353a207472616e7366657220746f206e6f6e2d455243313135356044820152732932b1b2b4bb32b91034b6b83632b6b2b73a32b960611b6064820152608401610531565b6001600160e01b0319811663bc197c8160e01b146113695760405162461bcd60e51b8152600401610531906127ad565b604080516001808252818301909252606091600091906020808301908036833701905050905082816000815181106118ea576118ea61246e565b602090810291909101015292915050565b6001600160a01b0384163b156110cd5760405163f23a6e6160e01b81526001600160a01b0385169063f23a6e619061193f90899089908890889088906004016127f5565b6020604051808303816000875af192505050801561197a575060408051601f3d908101601f19168201909252611977918101906126ec565b60015b611986576117e0612709565b6001600160e01b0319811663f23a6e6160e01b146113695760405162461bcd60e51b8152600401610531906127ad565b8280546119c290612232565b90600052602060002090601f0160209004810192826119e45760008555611a2a565b82601f106119fd5782800160ff19823516178555611a2a565b82800160010185558215611a2a579182015b82811115611a2a578235825591602001919060010190611a0f565b50611a36929150611a3a565b5090565b5b80821115611a365760008155600101611a3b565b6001600160a01b0381168114610d2857600080fd5b60008060408385031215611a7757600080fd5b8235611a8281611a4f565b946020939093013593505050565b6001600160e01b031981168114610d2857600080fd5b600060208284031215611ab857600080fd5b8135611ac381611a90565b9392505050565b600060208284031215611adc57600080fd5b5035919050565b60005b83811015611afe578181015183820152602001611ae6565b83811115610e3e5750506000910152565b60008151808452611b27816020860160208601611ae3565b601f01601f19169290920160200192915050565b602081526000611ac36020830184611b0f565b60008083601f840112611b6057600080fd5b5081356001600160401b03811115611b7757600080fd5b602083019150836020828501011115611b8f57600080fd5b9250929050565b60008060008060008060008060008060c08b8d031215611bb557600080fd5b8a35995060208b01356001600160401b0380821115611bd357600080fd5b611bdf8e838f01611b4e565b909b50995060408d0135915080821115611bf857600080fd5b611c048e838f01611b4e565b909950975060608d0135915080821115611c1d57600080fd5b611c298e838f01611b4e565b909750955060808d0135915080821115611c4257600080fd5b50611c4f8d828e01611b4e565b9150809450508092505060a08b013590509295989b9194979a5092959850565b634e487b7160e01b600052604160045260246000fd5b601f8201601f191681016001600160401b0381118282101715611caa57611caa611c6f565b6040525050565b60006001600160401b03821115611cca57611cca611c6f565b5060051b60200190565b600082601f830112611ce557600080fd5b81356020611cf282611cb1565b604051611cff8282611c85565b83815260059390931b8501820192828101915086841115611d1f57600080fd5b8286015b84811015611d3a5780358352918301918301611d23565b509695505050505050565b600082601f830112611d5657600080fd5b81356001600160401b03811115611d6f57611d6f611c6f565b604051611d86601f8301601f191660200182611c85565b818152846020838601011115611d9b57600080fd5b816020850160208301376000918101602001919091529392505050565b600080600080600060a08688031215611dd057600080fd5b8535611ddb81611a4f565b94506020860135611deb81611a4f565b935060408601356001600160401b0380821115611e0757600080fd5b611e1389838a01611cd4565b94506060880135915080821115611e2957600080fd5b611e3589838a01611cd4565b93506080880135915080821115611e4b57600080fd5b50611e5888828901611d45565b9150509295509295909350565b60008060008060008060006080888a031215611e8057600080fd5b8735965060208801356001600160401b0380821115611e9e57600080fd5b611eaa8b838c01611b4e565b909850965060408a0135915080821115611ec357600080fd5b611ecf8b838c01611b4e565b909650945060608a0135915080821115611ee857600080fd5b50611ef58a828b01611b4e565b989b979a50959850939692959293505050565b60008060408385031215611f1b57600080fd5b82356001600160401b0380821115611f3257600080fd5b818501915085601f830112611f4657600080fd5b81356020611f5382611cb1565b604051611f608282611c85565b83815260059390931b8501820192828101915089841115611f8057600080fd5b948201945b83861015611fa7578535611f9881611a4f565b82529482019490820190611f85565b96505086013592505080821115611fbd57600080fd5b50611fca85828601611cd4565b9150509250929050565b600081518084526020808501945080840160005b8381101561200457815187529582019590820190600101611fe8565b509495945050505050565b602081526000611ac36020830184611fd4565b6000806040838503121561203557600080fd5b50508035926020909101359150565b60006020828403121561205657600080fd5b8135611ac381611a4f565b6000806000806060858703121561207757600080fd5b84356001600160401b0381111561208d57600080fd5b61209987828801611b4e565b90989097506020870135966040013595509350505050565b6000602082840312156120c357600080fd5b81356001600160401b038111156120d957600080fd5b6120e584828501611d45565b949350505050565b8015158114610d2857600080fd5b6000806040838503121561210e57600080fd5b823561211981611a4f565b91506020830135612129816120ed565b809150509250929050565b6000806040838503121561214757600080fd5b823561215281611a4f565b9150602083013561212981611a4f565b600080600080600060a0868803121561217a57600080fd5b853561218581611a4f565b9450602086013561219581611a4f565b9350604086013592506060860135915060808601356001600160401b038111156121be57600080fd5b611e5888828901611d45565b6000806000604084860312156121df57600080fd5b83356001600160401b03808211156121f657600080fd5b61220287838801611d45565b9450602086013591508082111561221857600080fd5b5061222586828701611b4e565b9497909650939450505050565b600181811c9082168061224657607f821691505b60208210810361226657634e487b7160e01b600052602260045260246000fd5b50919050565b8054600090600181811c908083168061228657607f831692505b602080841082036122a757634e487b7160e01b600052602260045260246000fd5b8180156122bb57600181146122cc576122f9565b60ff198616895284890196506122f9565b60008881526020902060005b868110156122f15781548b8201529085019083016122d8565b505084890196505b50505050505092915050565b6000612311828561226c565b8351612321818360208801611ae3565b01949350505050565b8183823760009101908152919050565b81835281816020850137506000828201602090810191909152601f909101601f19169091010190565b89815260c06020820152600061237d60c083018a8c61233a565b828103604084015261239081898b61233a565b905086606084015282810360808401526123ab81868861233a565b9150508260a08301529a9950505050505050505050565b6000602082840312156123d457600080fd5b8151611ac3816120ed565b6020808252602e908201527f455243313135353a2063616c6c6572206973206e6f7420746f6b656e206f776e60408201526d195c881bdc88185c1c1c9bdd995960921b606082015260800190565b86815260806020820152600061244760808301878961233a565b828103604084015261245a81868861233a565b915050826060830152979650505050505050565b634e487b7160e01b600052603260045260246000fd5b634e487b7160e01b600052601160045260246000fd5b6000600182016124ac576124ac612484565b5060010190565b600060018060a01b03808916835260a060208401526124d660a08401888a61233a565b83810360408501526124e88188611b0f565b905083810360608501526124fc8187611b0f565b925050808416608084015250979650505050505050565b60608152600061252760608301868861233a565b82810360208401526125398186611b0f565b9050828103604084015261254d8185611b0f565b979650505050505050565b6000821982111561256b5761256b612484565b500190565b60008251612582818460208701611ae3565b9190910192915050565b60208082526025908201527f455243313135353a207472616e7366657220746f20746865207a65726f206164604082015264647265737360d81b606082015260800190565b6020808252602a908201527f455243313135353a20696e73756666696369656e742062616c616e636520666f60408201526939103a3930b739b332b960b11b606082015260800190565b60408152600061262e6040830185611fd4565b82810360208401526126408185611fd4565b95945050505050565b6000611ac3828461226c565b60008060006060848603121561266a57600080fd5b8335925060208401359150604084013561268381611a4f565b809150509250925092565b6001600160a01b0386811682528516602082015260a0604082018190526000906126ba90830186611fd4565b82810360608401526126cc8186611fd4565b905082810360808401526126e08185611b0f565b98975050505050505050565b6000602082840312156126fe57600080fd5b8151611ac381611a90565b600060033d1115610e8d5760046000803e5060005160e01c90565b600060443d10156127325790565b6040516003193d81016004833e81513d6001600160401b03816024840111818411171561276157505050505090565b82850191508151818111156127795750505050505090565b843d87010160208285010111156127935750505050505090565b6127a260208286010187611c85565b509095945050505050565b60208082526028908201527f455243313135353a204552433131353552656365697665722072656a656374656040820152676420746f6b656e7360c01b606082015260800190565b6001600160a01b03868116825285166020820152604081018490526060810183905260a06080820181905260009061254d90830184611b0f56fea2646970667358221220a602a315ec1ec23b978d770a9f16313732ad4d83427af2900581f65a64fdc97764736f6c634300080d0033",
  "devdoc": {
    "kind": "dev",
    "methods": {
      "balanceOf(address,uint256)": {
        "details": "See {IERC1155-balanceOf}. Requirements: - `account` cannot be the zero address."
      },
      "balanceOfBatch(address[],uint256[])": {
        "details": "See {IERC1155-balanceOfBatch}. Requirements: - `accounts` and `ids` must have the same length."
      },
      "isApprovedForAll(address,address)": {
        "details": "See {IERC1155-isApprovedForAll}."
      },
      "owner()": {
        "details": "Returns the address of the current owner."
      },
      "renounceOwnership()": {
        "details": "Leaves the contract without owner. It will not be possible to call `onlyOwner` functions. Can only be called by the current owner. NOTE: Renouncing ownership will leave the contract without an owner, thereby disabling any functionality that is only available to the owner."
      },
      "safeBatchTransferFrom(address,address,uint256[],uint256[],bytes)": {
        "details": "See {IERC1155-safeBatchTransferFrom}."
      },
      "safeTransferFrom(address,address,uint256,uint256,bytes)": {
        "details": "See {IERC1155-safeTransferFrom}."
      },
      "setApprovalForAll(address,bool)": {
        "details": "See {IERC1155-setApprovalForAll}."
      },
      "supportsInterface(bytes4)": {
        "details": "See {IERC165-supportsInterface}."
      },
      "transferOwnership(address)": {
        "details": "Transfers ownership of the contract to a new account (`newOwner`). Can only be called by the current owner."
      }
    },
    "version": 1
  },
  "userdoc": {
    "kind": "user",
    "methods": {},
    "version": 1
  },
  "storageLayout": {
    "storage": [
      {
        "astId": 217,
        "contract": "src/Utils.sol:Utils",
        "label": "_balances",
        "offset": 0,
        "slot": "0",
        "type": "t_mapping(t_uint256,t_mapping(t_address,t_uint256))"
      },
      {
        "astId": 223,
        "contract": "src/Utils.sol:Utils",
        "label": "_operatorApprovals",
        "offset": 0,
        "slot": "1",
        "type": "t_mapping(t_address,t_mapping(t_address,t_bool))"
      },
      {
        "astId": 225,
        "contract": "src/Utils.sol:Utils",
        "label": "_uri",
        "offset": 0,
        "slot": "2",
        "type": "t_string_storage"
      },
      {
        "astId": 7,
        "contract": "src/Utils.sol:Utils",
        "label": "_owner",
        "offset": 0,
        "slot": "3",
        "type": "t_address"
      },
      {
        "astId": 2051,
        "contract": "src/Utils.sol:Utils",
        "label": "baseUri",
        "offset": 0,
        "slot": "4",
        "type": "t_string_storage"
      },
      {
        "astId": 2053,
        "contract": "src/Utils.sol:Utils",
        "label": "utilCount",
        "offset": 0,
        "slot": "5",
        "type": "t_uint256"
      },
      {
        "astId": 2060,
        "contract": "src/Utils.sol:Utils",
        "label": "chains",
        "offset": 0,
        "slot": "6",
        "type": "t_mapping(t_string_memory_ptr,t_string_storage)"
      }
    ],
    "types": {
      "t_address": {
        "encoding": "inplace",
        "label": "address",
        "numberOfBytes": "20"
      },
      "t_bool": {
        "encoding": "inplace",
        "label": "bool",
        "numberOfBytes": "1"
      },
      "t_mapping(t_address,t_bool)": {
        "encoding": "mapping",
        "key": "t_address",
        "label": "mapping(address => bool)",
        "numberOfBytes": "32",
        "value": "t_bool"
      },
      "t_mapping(t_address,t_mapping(t_address,t_bool))": {
        "encoding": "mapping",
        "key": "t_address",
        "label": "mapping(address => mapping(address => bool))",
        "numberOfBytes": "32",
        "value": "t_mapping(t_address,t_bool)"
      },
      "t_mapping(t_address,t_uint256)": {
        "encoding": "mapping",
        "key": "t_address",
        "label": "mapping(address => uint256)",
        "numberOfBytes": "32",
        "value": "t_uint256"
      },
      "t_mapping(t_string_memory_ptr,t_string_storage)": {
        "encoding": "mapping",
        "key": "t_string_memory_ptr",
        "label": "mapping(string => string)",
        "numberOfBytes": "32",
        "value": "t_string_storage"
      },
      "t_mapping(t_uint256,t_mapping(t_address,t_uint256))": {
        "encoding": "mapping",
        "key": "t_uint256",
        "label": "mapping(uint256 => mapping(address => uint256))",
        "numberOfBytes": "32",
        "value": "t_mapping(t_address,t_uint256)"
      },
      "t_string_memory_ptr": {
        "encoding": "bytes",
        "label": "string",
        "numberOfBytes": "32"
      },
      "t_string_storage": {
        "encoding": "bytes",
        "label": "string",
        "numberOfBytes": "32"
      },
      "t_uint256": {
        "encoding": "inplace",
        "label": "uint256",
        "numberOfBytes": "32"
      }
    }
  }
}