{
  "abi": [
    {
      "inputs": [
        {
          "internalType": "string",
          "name": "_baseUri",
          "type": "string"
        },
        {
          "internalType": "address",
          "name": "trustedForwarder",
          "type": "address"
        },
        {
          "internalType": "address",
          "name": "gateway_",
          "type": "address"
        },
        {
          "internalType": "address",
          "name": "gasReceiver_",
          "type": "address"
        }
      ],
      "stateMutability": "nonpayable",
      "type": "constructor"
    },
    {
      "inputs": [],
      "name": "CrossChainNotSupported",
      "type": "error"
    },
    {
      "inputs": [],
      "name": "InsufficientBalance",
      "type": "error"
    },
    {
      "inputs": [],
      "name": "InvalidAddress",
      "type": "error"
    },
    {
      "inputs": [],
      "name": "InvalidChain",
      "type": "error"
    },
    {
      "inputs": [],
      "name": "NotApprovedByGateway",
      "type": "error"
    },
    {
      "anonymous": false,
      "inputs": [
        {
          "indexed": true,
          "internalType": "address",
          "name": "account",
          "type": "address"
        },
        {
          "indexed": true,
          "internalType": "address",
          "name": "operator",
          "type": "address"
        },
        {
          "indexed": false,
          "internalType": "bool",
          "name": "approved",
          "type": "bool"
        }
      ],
      "name": "ApprovalForAll",
      "type": "event"
    },
    {
      "anonymous": false,
      "inputs": [
        {
          "indexed": true,
          "internalType": "address",
          "name": "previousOwner",
          "type": "address"
        },
        {
          "indexed": true,
          "internalType": "address",
          "name": "newOwner",
          "type": "address"
        }
      ],
      "name": "OwnershipTransferred",
      "type": "event"
    },
    {
      "anonymous": false,
      "inputs": [
        {
          "indexed": true,
          "internalType": "address",
          "name": "operator",
          "type": "address"
        },
        {
          "indexed": true,
          "internalType": "address",
          "name": "from",
          "type": "address"
        },
        {
          "indexed": true,
          "internalType": "address",
          "name": "to",
          "type": "address"
        },
        {
          "indexed": false,
          "internalType": "uint256[]",
          "name": "ids",
          "type": "uint256[]"
        },
        {
          "indexed": false,
          "internalType": "uint256[]",
          "name": "values",
          "type": "uint256[]"
        }
      ],
      "name": "TransferBatch",
      "type": "event"
    },
    {
      "anonymous": false,
      "inputs": [
        {
          "indexed": true,
          "internalType": "address",
          "name": "operator",
          "type": "address"
        },
        {
          "indexed": true,
          "internalType": "address",
          "name": "from",
          "type": "address"
        },
        {
          "indexed": true,
          "internalType": "address",
          "name": "to",
          "type": "address"
        },
        {
          "indexed": false,
          "internalType": "uint256",
          "name": "id",
          "type": "uint256"
        },
        {
          "indexed": false,
          "internalType": "uint256",
          "name": "value",
          "type": "uint256"
        }
      ],
      "name": "TransferSingle",
      "type": "event"
    },
    {
      "anonymous": false,
      "inputs": [
        {
          "indexed": false,
          "internalType": "string",
          "name": "value",
          "type": "string"
        },
        {
          "indexed": true,
          "internalType": "uint256",
          "name": "id",
          "type": "uint256"
        }
      ],
      "name": "URI",
      "type": "event"
    },
    {
      "inputs": [
        {
          "internalType": "address",
          "name": "account",
          "type": "address"
        },
        {
          "internalType": "uint256",
          "name": "id",
          "type": "uint256"
        }
      ],
      "name": "balanceOf",
      "outputs": [
        {
          "internalType": "uint256",
          "name": "",
          "type": "uint256"
        }
      ],
      "stateMutability": "view",
      "type": "function"
    },
    {
      "inputs": [
        {
          "internalType": "address[]",
          "name": "accounts",
          "type": "address[]"
        },
        {
          "internalType": "uint256[]",
          "name": "ids",
          "type": "uint256[]"
        }
      ],
      "name": "balanceOfBatch",
      "outputs": [
        {
          "internalType": "uint256[]",
          "name": "",
          "type": "uint256[]"
        }
      ],
      "stateMutability": "view",
      "type": "function"
    },
    {
      "inputs": [],
      "name": "baseUri",
      "outputs": [
        {
          "internalType": "string",
          "name": "",
          "type": "string"
        }
      ],
      "stateMutability": "view",
      "type": "function"
    },
    {
      "inputs": [
        {
          "internalType": "string",
          "name": "",
          "type": "string"
        }
      ],
      "name": "chains",
      "outputs": [
        {
          "internalType": "string",
          "name": "",
          "type": "string"
        }
      ],
      "stateMutability": "view",
      "type": "function"
    },
    {
      "inputs": [
        {
          "internalType": "string",
          "name": "destinationChain",
          "type": "string"
        },
        {
          "internalType": "uint256",
          "name": "tokenId",
          "type": "uint256"
        },
        {
          "internalType": "uint256",
          "name": "amount",
          "type": "uint256"
        }
      ],
      "name": "crossChainTransfer",
      "outputs": [],
      "stateMutability": "payable",
      "type": "function"
    },
    {
      "inputs": [
        {
          "internalType": "bytes32",
          "name": "commandId",
          "type": "bytes32"
        },
        {
          "internalType": "string",
          "name": "sourceChain",
          "type": "string"
        },
        {
          "internalType": "string",
          "name": "sourceAddress",
          "type": "string"
        },
        {
          "internalType": "bytes",
          "name": "payload",
          "type": "bytes"
        }
      ],
      "name": "execute",
      "outputs": [],
      "stateMutability": "nonpayable",
      "type": "function"
    },
    {
      "inputs": [
        {
          "internalType": "bytes32",
          "name": "commandId",
          "type": "bytes32"
        },
        {
          "internalType": "string",
          "name": "sourceChain",
          "type": "string"
        },
        {
          "internalType": "string",
          "name": "sourceAddress",
          "type": "string"
        },
        {
          "internalType": "bytes",
          "name": "payload",
          "type": "bytes"
        },
        {
          "internalType": "string",
          "name": "tokenSymbol",
          "type": "string"
        },
        {
          "internalType": "uint256",
          "name": "amount",
          "type": "uint256"
        }
      ],
      "name": "executeWithToken",
      "outputs": [],
      "stateMutability": "nonpayable",
      "type": "function"
    },
    {
      "inputs": [],
      "name": "gasService",
      "outputs": [
        {
          "internalType": "contract IAxelarGasService",
          "name": "",
          "type": "address"
        }
      ],
      "stateMutability": "view",
      "type": "function"
    },
    {
      "inputs": [],
      "name": "gateway",
      "outputs": [
        {
          "internalType": "contract IAxelarGateway",
          "name": "",
          "type": "address"
        }
      ],
      "stateMutability": "view",
      "type": "function"
    },
    {
      "inputs": [
        {
          "internalType": "address",
          "name": "account",
          "type": "address"
        },
        {
          "internalType": "address",
          "name": "operator",
          "type": "address"
        }
      ],
      "name": "isApprovedForAll",
      "outputs": [
        {
          "internalType": "bool",
          "name": "",
          "type": "bool"
        }
      ],
      "stateMutability": "view",
      "type": "function"
    },
    {
      "inputs": [
        {
          "internalType": "address",
          "name": "forwarder",
          "type": "address"
        }
      ],
      "name": "isTrustedForwarder",
      "outputs": [
        {
          "internalType": "bool",
          "name": "",
          "type": "bool"
        }
      ],
      "stateMutability": "view",
      "type": "function"
    },
    {
      "inputs": [
        {
          "internalType": "uint256",
          "name": "amount",
          "type": "uint256"
        }
      ],
      "name": "mint",
      "outputs": [],
      "stateMutability": "nonpayable",
      "type": "function"
    },
    {
      "inputs": [
        {
          "internalType": "uint256",
          "name": "id",
          "type": "uint256"
        },
        {
          "internalType": "uint256",
          "name": "amount",
          "type": "uint256"
        }
      ],
      "name": "mintMore",
      "outputs": [],
      "stateMutability": "nonpayable",
      "type": "function"
    },
    {
      "inputs": [],
      "name": "owner",
      "outputs": [
        {
          "internalType": "address",
          "name": "",
          "type": "address"
        }
      ],
      "stateMutability": "view",
      "type": "function"
    },
    {
      "inputs": [],
      "name": "renounceOwnership",
      "outputs": [],
      "stateMutability": "nonpayable",
      "type": "function"
    },
    {
      "inputs": [
        {
          "internalType": "address",
          "name": "from",
          "type": "address"
        },
        {
          "internalType": "address",
          "name": "to",
          "type": "address"
        },
        {
          "internalType": "uint256[]",
          "name": "ids",
          "type": "uint256[]"
        },
        {
          "internalType": "uint256[]",
          "name": "amounts",
          "type": "uint256[]"
        },
        {
          "internalType": "bytes",
          "name": "data",
          "type": "bytes"
        }
      ],
      "name": "safeBatchTransferFrom",
      "outputs": [],
      "stateMutability": "nonpayable",
      "type": "function"
    },
    {
      "inputs": [
        {
          "internalType": "address",
          "name": "from",
          "type": "address"
        },
        {
          "internalType": "address",
          "name": "to",
          "type": "address"
        },
        {
          "internalType": "uint256",
          "name": "id",
          "type": "uint256"
        },
        {
          "internalType": "uint256",
          "name": "amount",
          "type": "uint256"
        },
        {
          "internalType": "bytes",
          "name": "data",
          "type": "bytes"
        }
      ],
      "name": "safeTransferFrom",
      "outputs": [],
      "stateMutability": "nonpayable",
      "type": "function"
    },
    {
      "inputs": [
        {
          "internalType": "address",
          "name": "operator",
          "type": "address"
        },
        {
          "internalType": "bool",
          "name": "approved",
          "type": "bool"
        }
      ],
      "name": "setApprovalForAll",
      "outputs": [],
      "stateMutability": "nonpayable",
      "type": "function"
    },
    {
      "inputs": [
        {
          "internalType": "string",
          "name": "chain",
          "type": "string"
        },
        {
          "internalType": "string",
          "name": "addr",
          "type": "string"
        }
      ],
      "name": "setChain",
      "outputs": [],
      "stateMutability": "nonpayable",
      "type": "function"
    },
    {
      "inputs": [
        {
          "internalType": "bytes4",
          "name": "interfaceId",
          "type": "bytes4"
        }
      ],
      "name": "supportsInterface",
      "outputs": [
        {
          "internalType": "bool",
          "name": "",
          "type": "bool"
        }
      ],
      "stateMutability": "view",
      "type": "function"
    },
    {
      "inputs": [
        {
          "internalType": "address",
          "name": "newOwner",
          "type": "address"
        }
      ],
      "name": "transferOwnership",
      "outputs": [],
      "stateMutability": "nonpayable",
      "type": "function"
    },
    {
      "inputs": [
        {
          "internalType": "uint256",
          "name": "id",
          "type": "uint256"
        }
      ],
      "name": "uri",
      "outputs": [
        {
          "internalType": "string",
          "name": "",
          "type": "string"
        }
      ],
      "stateMutability": "view",
      "type": "function"
    },
    {
      "inputs": [],
      "name": "utilCount",
      "outputs": [
        {
          "internalType": "uint256",
          "name": "",
          "type": "uint256"
        }
      ],
      "stateMutability": "view",
      "type": "function"
    }
  ],
  "bytecode": {
    "object": "0x60e06040523480156200001157600080fd5b5060405162002cf638038062002cf683398101604081905262000034916200018c565b6001600160a01b03831660805281846200004e81620000bc565b50620000636200005d620000ce565b620000df565b6001600160a01b0381166200008b5760405163e6c4247b60e01b815260040160405180910390fd5b6001600160a01b031660a0526004620000a5858262000328565b506001600160a01b031660c05250620003f4915050565b6002620000ca828262000328565b5050565b6000620000da62000131565b905090565b600380546001600160a01b038381166001600160a01b0319831681179093556040519116919082907f8be0079c531659141344cd1fd0a4f28419497f9722a3daafe3b4186f6b6457e090600090a35050565b6080516000906001600160a01b0316330362000154575060131936013560601c90565b503390565b634e487b7160e01b600052604160045260246000fd5b80516001600160a01b03811681146200018757600080fd5b919050565b60008060008060808587031215620001a357600080fd5b84516001600160401b0380821115620001bb57600080fd5b818701915087601f830112620001d057600080fd5b815181811115620001e557620001e562000159565b604051601f8201601f19908116603f0116810190838211818310171562000210576200021062000159565b81604052828152602093508a848487010111156200022d57600080fd5b600091505b8282101562000251578482018401518183018501529083019062000232565b60008484830101528098505050506200026c8188016200016f565b945050506200027e604086016200016f565b91506200028e606086016200016f565b905092959194509250565b600181811c90821680620002ae57607f821691505b602082108103620002cf57634e487b7160e01b600052602260045260246000fd5b50919050565b601f8211156200032357600081815260208120601f850160051c81016020861015620002fe5750805b601f850160051c820191505b818110156200031f578281556001016200030a565b5050505b505050565b81516001600160401b0381111562000344576200034462000159565b6200035c8162000355845462000299565b84620002d5565b602080601f8311600181146200039457600084156200037b5750858301515b600019600386901b1c1916600185901b1785556200031f565b600085815260208120601f198616915b82811015620003c557888601518255948401946001909101908401620003a4565b5085821015620003e45787850151600019600388901b60f8161c191681555b5050505050600190811b01905550565b60805160a05160c0516128a162000455600039600081816103410152818161096901528181610b1e015261108e0152600081816101e601528181610618015281816107590152610ba90152600081816102ec015261171001526128a16000f3fe60806040526004361061013f5760003560e01c80636a22d8cc116100b6578063a22cb4651161006f578063a22cb465146103eb578063baacbe9b1461040b578063e985e9c514610421578063f242432a1461046a578063f2fde38b1461048a578063f567ad9d146104aa57600080fd5b80636a22d8cc1461032f578063715018a6146103635780638a39f0f7146103785780638da5cb5b146103985780639abc8320146103b6578063a0712d68146103cb57600080fd5b80632eb2c2d6116101085780632eb2c2d61461024257806349160658146102625780634e1273f4146102825780634f7c055e146102af578063572b6c05146102cf5780635c6eaafd1461031c57600080fd5b8062fdd58e1461014457806301ffc9a7146101775780630e89341c146101a7578063116191b6146101d45780631a98b2e014610220575b600080fd5b34801561015057600080fd5b5061016461015f3660046119c9565b6104ca565b6040519081526020015b60405180910390f35b34801561018357600080fd5b50610197610192366004611a0b565b610563565b604051901515815260200161016e565b3480156101b357600080fd5b506101c76101c2366004611a2f565b6105b3565b60405161016e9190611a98565b3480156101e057600080fd5b506102087f000000000000000000000000000000000000000000000000000000000000000081565b6040516001600160a01b03909116815260200161016e565b34801561022c57600080fd5b5061024061023b366004611af3565b6105e7565b005b34801561024e57600080fd5b5061024061025d366004611d15565b6106ca565b34801561026e57600080fd5b5061024061027d366004611dc2565b610728565b34801561028e57600080fd5b506102a261029d366004611e65565b610810565b60405161016e9190611f6c565b3480156102bb57600080fd5b506102406102ca366004611f7f565b610939565b3480156102db57600080fd5b506101976102ea366004611fa1565b7f00000000000000000000000000000000000000000000000000000000000000006001600160a01b0390811691161490565b61024061032a366004611fbe565b610967565b34801561033b57600080fd5b506102087f000000000000000000000000000000000000000000000000000000000000000081565b34801561036f57600080fd5b50610240610c1e565b34801561038457600080fd5b506101c761039336600461200e565b610c32565b3480156103a457600080fd5b506003546001600160a01b0316610208565b3480156103c257600080fd5b506101c7610cd7565b3480156103d757600080fd5b506102406103e6366004611a2f565b610ce4565b3480156103f757600080fd5b50610240610406366004612058565b610d2c565b34801561041757600080fd5b5061016460055481565b34801561042d57600080fd5b5061019761043c366004612091565b6001600160a01b03918216600090815260016020908152604080832093909416825291909152205460ff1690565b34801561047657600080fd5b506102406104853660046120bf565b610d3e565b34801561049657600080fd5b506102406104a5366004611fa1565b610d95565b3480156104b657600080fd5b506102406104c5366004612127565b610e0b565b60006001600160a01b03831661053a5760405162461bcd60e51b815260206004820152602a60248201527f455243313135353a2061646472657373207a65726f206973206e6f742061207660448201526930b634b21037bbb732b960b11b60648201526084015b60405180910390fd5b506000818152602081815260408083206001600160a01b03861684529091529020545b92915050565b60006001600160e01b03198216636cdb3d1360e11b148061059457506001600160e01b031982166303a24d0760e21b145b8061055d57506301ffc9a760e01b6001600160e01b031983161461055d565b606060046105c083610e46565b6040516020016105d192919061223c565b6040516020818303038152906040529050919050565b600085856040516105f9929190612261565b604051908190038120631876eed960e01b825291506001600160a01b037f00000000000000000000000000000000000000000000000000000000000000001690631876eed99061065d908e908e908e908e908e9089908d908d908d9060040161229a565b6020604051808303816000875af115801561067c573d6000803e3d6000fd5b505050506040513d601f19601f820116820180604052508101906106a091906122f9565b6106bd57604051631403112d60e21b815260040160405180910390fd5b5050505050505050505050565b6106d2610e95565b6001600160a01b0316856001600160a01b031614806106f857506106f88561043c610e95565b6107145760405162461bcd60e51b815260040161053190612316565b6107218585858585610ea4565b5050505050565b6000828260405161073a929190612261565b604051908190038120635f6970c360e01b825291506001600160a01b037f00000000000000000000000000000000000000000000000000000000000000001690635f6970c390610798908b908b908b908b908b908990600401612364565b6020604051808303816000875af11580156107b7573d6000803e3d6000fd5b505050506040513d601f19601f820116820180604052508101906107db91906122f9565b6107f857604051631403112d60e21b815260040160405180910390fd5b61080687878787878761108c565b5050505050505050565b606081518351146108755760405162461bcd60e51b815260206004820152602960248201527f455243313135353a206163636f756e747320616e6420696473206c656e677468604482015268040dad2e6dac2e8c6d60bb1b6064820152608401610531565b600083516001600160401b0381111561089057610890611bcc565b6040519080825280602002602001820160405280156108b9578160200160208202803683370190505b50905060005b8451811015610931576109048582815181106108dd576108dd6123a5565b60200260200101518583815181106108f7576108f76123a5565b60200260200101516104ca565b828281518110610916576109166123a5565b602090810291909101015261092a816123d1565b90506108bf565b509392505050565b610941611191565b61096361094c610e95565b83836040518060200160405280600081525061120a565b5050565b7f00000000000000000000000000000000000000000000000000000000000000006001600160a01b03166109ae5760405163358ce81d60e21b815260040160405180910390fd5b6000600685856040516109c2929190612261565b908152602001604051809103902080546109db9061218f565b80601f0160208091040260200160405190810160405280929190818152602001828054610a079061218f565b8015610a545780601f10610a2957610100808354040283529160200191610a54565b820191906000526020600020905b815481529060010190602001808311610a3757829003601f168201915b505050505090508051600003610a7d5760405163057f3fa760e51b815260040160405180910390fd5b610a8e610a88610e95565b846104ca565b821115610aae57604051631e9acf1760e31b815260040160405180910390fd5b610ac0610ab9610e95565b8484611329565b60008383610acc610e95565b6040805160208101949094528301919091526001600160a01b0316606082015260800160408051601f1981840301815291905290503415610b9257604051630c93e3bb60e01b81526001600160a01b037f00000000000000000000000000000000000000000000000000000000000000001690630c93e3bb903490610b5f9030908b908b908990899033906004016123ea565b6000604051808303818588803b158015610b7857600080fd5b505af1158015610b8c573d6000803e3d6000fd5b50505050505b604051631c92115f60e01b81526001600160a01b037f00000000000000000000000000000000000000000000000000000000000000001690631c92115f90610be490899089908790879060040161244a565b600060405180830381600087803b158015610bfe57600080fd5b505af1158015610c12573d6000803e3d6000fd5b50505050505050505050565b610c26611191565b610c3060006114b0565b565b805160208183018101805160068252928201919093012091528054610c569061218f565b80601f0160208091040260200160405190810160405280929190818152602001828054610c829061218f565b8015610ccf5780601f10610ca457610100808354040283529160200191610ccf565b820191906000526020600020905b815481529060010190602001808311610cb257829003601f168201915b505050505081565b60048054610c569061218f565b610cec611191565b600160056000828254610cff919061248f565b90915550610d299050610d10610e95565b600554836040518060200160405280600081525061120a565b50565b610963610d37610e95565b8383611502565b610d46610e95565b6001600160a01b0316856001600160a01b03161480610d6c5750610d6c8561043c610e95565b610d885760405162461bcd60e51b815260040161053190612316565b61072185858585856115e2565b610d9d611191565b6001600160a01b038116610e025760405162461bcd60e51b815260206004820152602660248201527f4f776e61626c653a206e6577206f776e657220697320746865207a65726f206160448201526564647265737360d01b6064820152608401610531565b610d29816114b0565b610e13611191565b8181600685604051610e2591906124a2565b90815260200160405180910390209182610e40929190612509565b50505050565b606060a06040510180604052602081039150506000815280825b600183039250600a81066030018353600a900480610e605750819003601f19909101908152919050565b505050505050505050565b6000610e9f61170c565b905090565b8151835114610f065760405162461bcd60e51b815260206004820152602860248201527f455243313135353a2069647320616e6420616d6f756e7473206c656e677468206044820152670dad2e6dac2e8c6d60c31b6064820152608401610531565b6001600160a01b038416610f2c5760405162461bcd60e51b8152600401610531906125c8565b6000610f36610e95565b905060005b845181101561101e576000858281518110610f5857610f586123a5565b602002602001015190506000858381518110610f7657610f766123a5565b602090810291909101810151600084815280835260408082206001600160a01b038e168352909352919091205490915081811015610fc65760405162461bcd60e51b81526004016105319061260d565b6000838152602081815260408083206001600160a01b038e8116855292528083208585039055908b1682528120805484929061100390849061248f565b9250508190555050505080611017906123d1565b9050610f3b565b50846001600160a01b0316866001600160a01b0316826001600160a01b03167f4a39dc06d4c0dbc64b70af90fd698a233a518aa5d07e595d983b8c0526c8f7fb878760405161106e929190612657565b60405180910390a4611084818787878787611753565b505050505050565b7f00000000000000000000000000000000000000000000000000000000000000006001600160a01b03166110d35760405163358ce81d60e21b815260040160405180910390fd5b83836040516020016110e6929190612261565b604051602081830303815290604052805190602001206006878760405161110e929190612261565b908152602001604051809103902060405160200161112c9190612685565b60405160208183030381529060405280519060200120146111605760405163057f3fa760e51b815260040160405180910390fd5b6000808061117084860186612691565b925092509250610e8a8184846040518060200160405280600081525061120a565b611199610e95565b6001600160a01b03166111b46003546001600160a01b031690565b6001600160a01b031614610c305760405162461bcd60e51b815260206004820181905260248201527f4f776e61626c653a2063616c6c6572206973206e6f7420746865206f776e65726044820152606401610531565b6001600160a01b03841661126a5760405162461bcd60e51b815260206004820152602160248201527f455243313135353a206d696e7420746f20746865207a65726f206164647265736044820152607360f81b6064820152608401610531565b6000611274610e95565b90506000611281856118ae565b9050600061128e856118ae565b90506000868152602081815260408083206001600160a01b038b168452909152812080548792906112c090849061248f565b909155505060408051878152602081018790526001600160a01b03808a1692600092918716917fc3d58168c5ae7397731d063d5bbf3d657854427343f4c083240f7aacaa2d0f62910160405180910390a4611320836000898989896118f9565b50505050505050565b6001600160a01b03831661138b5760405162461bcd60e51b815260206004820152602360248201527f455243313135353a206275726e2066726f6d20746865207a65726f206164647260448201526265737360e81b6064820152608401610531565b6000611395610e95565b905060006113a2846118ae565b905060006113af846118ae565b60408051602080820183526000918290528882528181528282206001600160a01b038b16835290522054909150848110156114385760405162461bcd60e51b8152602060048201526024808201527f455243313135353a206275726e20616d6f756e7420657863656564732062616c604482015263616e636560e01b6064820152608401610531565b6000868152602081815260408083206001600160a01b038b81168086529184528285208a8703905582518b81529384018a90529092908816917fc3d58168c5ae7397731d063d5bbf3d657854427343f4c083240f7aacaa2d0f62910160405180910390a4604080516020810190915260009052611320565b600380546001600160a01b038381166001600160a01b0319831681179093556040519116919082907f8be0079c531659141344cd1fd0a4f28419497f9722a3daafe3b4186f6b6457e090600090a35050565b816001600160a01b0316836001600160a01b0316036115755760405162461bcd60e51b815260206004820152602960248201527f455243313135353a2073657474696e6720617070726f76616c20737461747573604482015268103337b91039b2b63360b91b6064820152608401610531565b6001600160a01b03838116600081815260016020908152604080832094871680845294825291829020805460ff191686151590811790915591519182527f17307eab39ab6107e8899845ad3d59bd9653f200f220920489ca2b5937696c31910160405180910390a3505050565b6001600160a01b0384166116085760405162461bcd60e51b8152600401610531906125c8565b6000611612610e95565b9050600061161f856118ae565b9050600061162c856118ae565b90506000868152602081815260408083206001600160a01b038c1684529091529020548581101561166f5760405162461bcd60e51b81526004016105319061260d565b6000878152602081815260408083206001600160a01b038d8116855292528083208985039055908a168252812080548892906116ac90849061248f565b909155505060408051888152602081018890526001600160a01b03808b16928c821692918816917fc3d58168c5ae7397731d063d5bbf3d657854427343f4c083240f7aacaa2d0f62910160405180910390a4610e8a848a8a8a8a8a6118f9565b60007f00000000000000000000000000000000000000000000000000000000000000006001600160a01b0316330361174b575060131936013560601c90565b503390565b90565b6001600160a01b0384163b156110845760405163bc197c8160e01b81526001600160a01b0385169063bc197c819061179790899089908890889088906004016126ca565b6020604051808303816000875af19250505080156117d2575060408051601f3d908101601f191682019092526117cf91810190612728565b60015b61187e576117de612745565b806308c379a00361181757506117f2612760565b806117fd5750611819565b8060405162461bcd60e51b81526004016105319190611a98565b505b60405162461bcd60e51b815260206004820152603460248201527f455243313135353a207472616e7366657220746f206e6f6e2d455243313135356044820152732932b1b2b4bb32b91034b6b83632b6b2b73a32b960611b6064820152608401610531565b6001600160e01b0319811663bc197c8160e01b146113205760405162461bcd60e51b8152600401610531906127e9565b604080516001808252818301909252606091600091906020808301908036833701905050905082816000815181106118e8576118e86123a5565b602090810291909101015292915050565b6001600160a01b0384163b156110845760405163f23a6e6160e01b81526001600160a01b0385169063f23a6e619061193d9089908990889088908890600401612831565b6020604051808303816000875af1925050508015611978575060408051601f3d908101601f1916820190925261197591810190612728565b60015b611984576117de612745565b6001600160e01b0319811663f23a6e6160e01b146113205760405162461bcd60e51b8152600401610531906127e9565b6001600160a01b0381168114610d2957600080fd5b600080604083850312156119dc57600080fd5b82356119e7816119b4565b946020939093013593505050565b6001600160e01b031981168114610d2957600080fd5b600060208284031215611a1d57600080fd5b8135611a28816119f5565b9392505050565b600060208284031215611a4157600080fd5b5035919050565b60005b83811015611a63578181015183820152602001611a4b565b50506000910152565b60008151808452611a84816020860160208601611a48565b601f01601f19169290920160200192915050565b602081526000611a286020830184611a6c565b60008083601f840112611abd57600080fd5b5081356001600160401b03811115611ad457600080fd5b602083019150836020828501011115611aec57600080fd5b9250929050565b60008060008060008060008060008060c08b8d031215611b1257600080fd5b8a35995060208b01356001600160401b0380821115611b3057600080fd5b611b3c8e838f01611aab565b909b50995060408d0135915080821115611b5557600080fd5b611b618e838f01611aab565b909950975060608d0135915080821115611b7a57600080fd5b611b868e838f01611aab565b909750955060808d0135915080821115611b9f57600080fd5b50611bac8d828e01611aab565b9150809450508092505060a08b013590509295989b9194979a5092959850565b634e487b7160e01b600052604160045260246000fd5b601f8201601f191681016001600160401b0381118282101715611c0757611c07611bcc565b6040525050565b60006001600160401b03821115611c2757611c27611bcc565b5060051b60200190565b600082601f830112611c4257600080fd5b81356020611c4f82611c0e565b604051611c5c8282611be2565b83815260059390931b8501820192828101915086841115611c7c57600080fd5b8286015b84811015611c975780358352918301918301611c80565b509695505050505050565b600082601f830112611cb357600080fd5b81356001600160401b03811115611ccc57611ccc611bcc565b604051611ce3601f8301601f191660200182611be2565b818152846020838601011115611cf857600080fd5b816020850160208301376000918101602001919091529392505050565b600080600080600060a08688031215611d2d57600080fd5b8535611d38816119b4565b94506020860135611d48816119b4565b935060408601356001600160401b0380821115611d6457600080fd5b611d7089838a01611c31565b94506060880135915080821115611d8657600080fd5b611d9289838a01611c31565b93506080880135915080821115611da857600080fd5b50611db588828901611ca2565b9150509295509295909350565b60008060008060008060006080888a031215611ddd57600080fd5b8735965060208801356001600160401b0380821115611dfb57600080fd5b611e078b838c01611aab565b909850965060408a0135915080821115611e2057600080fd5b611e2c8b838c01611aab565b909650945060608a0135915080821115611e4557600080fd5b50611e528a828b01611aab565b989b979a50959850939692959293505050565b60008060408385031215611e7857600080fd5b82356001600160401b0380821115611e8f57600080fd5b818501915085601f830112611ea357600080fd5b81356020611eb082611c0e565b604051611ebd8282611be2565b83815260059390931b8501820192828101915089841115611edd57600080fd5b948201945b83861015611f04578535611ef5816119b4565b82529482019490820190611ee2565b96505086013592505080821115611f1a57600080fd5b50611f2785828601611c31565b9150509250929050565b600081518084526020808501945080840160005b83811015611f6157815187529582019590820190600101611f45565b509495945050505050565b602081526000611a286020830184611f31565b60008060408385031215611f9257600080fd5b50508035926020909101359150565b600060208284031215611fb357600080fd5b8135611a28816119b4565b60008060008060608587031215611fd457600080fd5b84356001600160401b03811115611fea57600080fd5b611ff687828801611aab565b90989097506020870135966040013595509350505050565b60006020828403121561202057600080fd5b81356001600160401b0381111561203657600080fd5b61204284828501611ca2565b949350505050565b8015158114610d2957600080fd5b6000806040838503121561206b57600080fd5b8235612076816119b4565b915060208301356120868161204a565b809150509250929050565b600080604083850312156120a457600080fd5b82356120af816119b4565b91506020830135612086816119b4565b600080600080600060a086880312156120d757600080fd5b85356120e2816119b4565b945060208601356120f2816119b4565b9350604086013592506060860135915060808601356001600160401b0381111561211b57600080fd5b611db588828901611ca2565b60008060006040848603121561213c57600080fd5b83356001600160401b038082111561215357600080fd5b61215f87838801611ca2565b9450602086013591508082111561217557600080fd5b5061218286828701611aab565b9497909650939450505050565b600181811c908216806121a357607f821691505b6020821081036121c357634e487b7160e01b600052602260045260246000fd5b50919050565b600081546121d68161218f565b600182811680156121ee576001811461220357612232565b60ff1984168752821515830287019450612232565b8560005260208060002060005b858110156122295781548a820152908401908201612210565b50505082870194505b5050505092915050565b600061224882856121c9565b8351612258818360208801611a48565b01949350505050565b8183823760009101908152919050565b81835281816020850137506000828201602090810191909152601f909101601f19169091010190565b89815260c0602082015260006122b460c083018a8c612271565b82810360408401526122c781898b612271565b905086606084015282810360808401526122e2818688612271565b9150508260a08301529a9950505050505050505050565b60006020828403121561230b57600080fd5b8151611a288161204a565b6020808252602e908201527f455243313135353a2063616c6c6572206973206e6f7420746f6b656e206f776e60408201526d195c881bdc88185c1c1c9bdd995960921b606082015260800190565b86815260806020820152600061237e608083018789612271565b8281036040840152612391818688612271565b915050826060830152979650505050505050565b634e487b7160e01b600052603260045260246000fd5b634e487b7160e01b600052601160045260246000fd5b6000600182016123e3576123e36123bb565b5060010190565b600060018060a01b03808916835260a0602084015261240d60a08401888a612271565b838103604085015261241f8188611a6c565b905083810360608501526124338187611a6c565b925050808416608084015250979650505050505050565b60608152600061245e606083018688612271565b82810360208401526124708186611a6c565b905082810360408401526124848185611a6c565b979650505050505050565b8082018082111561055d5761055d6123bb565b600082516124b4818460208701611a48565b9190910192915050565b601f82111561250457600081815260208120601f850160051c810160208610156124e55750805b601f850160051c820191505b81811015611084578281556001016124f1565b505050565b6001600160401b0383111561252057612520611bcc565b6125348361252e835461218f565b836124be565b6000601f84116001811461256857600085156125505750838201355b600019600387901b1c1916600186901b178355610721565b600083815260209020601f19861690835b828110156125995786850135825560209485019460019092019101612579565b50868210156125b65760001960f88860031b161c19848701351681555b505060018560011b0183555050505050565b60208082526025908201527f455243313135353a207472616e7366657220746f20746865207a65726f206164604082015264647265737360d81b606082015260800190565b6020808252602a908201527f455243313135353a20696e73756666696369656e742062616c616e636520666f60408201526939103a3930b739b332b960b11b606082015260800190565b60408152600061266a6040830185611f31565b828103602084015261267c8185611f31565b95945050505050565b6000611a2882846121c9565b6000806000606084860312156126a657600080fd5b833592506020840135915060408401356126bf816119b4565b809150509250925092565b6001600160a01b0386811682528516602082015260a0604082018190526000906126f690830186611f31565b82810360608401526127088186611f31565b9050828103608084015261271c8185611a6c565b98975050505050505050565b60006020828403121561273a57600080fd5b8151611a28816119f5565b600060033d11156117505760046000803e5060005160e01c90565b600060443d101561276e5790565b6040516003193d81016004833e81513d6001600160401b03816024840111818411171561279d57505050505090565b82850191508151818111156127b55750505050505090565b843d87010160208285010111156127cf5750505050505090565b6127de60208286010187611be2565b509095945050505050565b60208082526028908201527f455243313135353a204552433131353552656365697665722072656a656374656040820152676420746f6b656e7360c01b606082015260800190565b6001600160a01b03868116825285166020820152604081018490526060810183905260a06080820181905260009061248490830184611a6c56fea264697066735822122022e0d0b64e6c80edf8741356a859f2f66e04d0170385bee417757bb9de5a495764736f6c63430008130033",
    "linkReferences": {}
  },
  "methodIdentifiers": {
    "balanceOf(address,uint256)": "00fdd58e",
    "balanceOfBatch(address[],uint256[])": "4e1273f4",
    "baseUri()": "9abc8320",
    "chains(string)": "8a39f0f7",
    "crossChainTransfer(string,uint256,uint256)": "5c6eaafd",
    "execute(bytes32,string,string,bytes)": "49160658",
    "executeWithToken(bytes32,string,string,bytes,string,uint256)": "1a98b2e0",
    "gasService()": "6a22d8cc",
    "gateway()": "116191b6",
    "isApprovedForAll(address,address)": "e985e9c5",
    "isTrustedForwarder(address)": "572b6c05",
    "mint(uint256)": "a0712d68",
    "mintMore(uint256,uint256)": "4f7c055e",
    "owner()": "8da5cb5b",
    "renounceOwnership()": "715018a6",
    "safeBatchTransferFrom(address,address,uint256[],uint256[],bytes)": "2eb2c2d6",
    "safeTransferFrom(address,address,uint256,uint256,bytes)": "f242432a",
    "setApprovalForAll(address,bool)": "a22cb465",
    "setChain(string,string)": "f567ad9d",
    "supportsInterface(bytes4)": "01ffc9a7",
    "transferOwnership(address)": "f2fde38b",
    "uri(uint256)": "0e89341c",
    "utilCount()": "baacbe9b"
  },
  "id": 35
}