{
  "address": "0xC07DdbA94611C33882612b8031b2a6AfB65ca545",
  "abi": [
    {
      "inputs": [],
      "stateMutability": "nonpayable",
      "type": "constructor"
    },
    {
      "inputs": [],
      "name": "InvalidShortString",
      "type": "error"
    },
    {
      "inputs": [
        {
          "internalType": "string",
          "name": "str",
          "type": "string"
        }
      ],
      "name": "StringTooLong",
      "type": "error"
    },
    {
      "anonymous": false,
      "inputs": [],
      "name": "EIP712DomainChanged",
      "type": "event"
    },
    {
      "inputs": [],
      "name": "eip712Domain",
      "outputs": [
        {
          "internalType": "bytes1",
          "name": "fields",
          "type": "bytes1"
        },
        {
          "internalType": "string",
          "name": "name",
          "type": "string"
        },
        {
          "internalType": "string",
          "name": "version",
          "type": "string"
        },
        {
          "internalType": "uint256",
          "name": "chainId",
          "type": "uint256"
        },
        {
          "internalType": "address",
          "name": "verifyingContract",
          "type": "address"
        },
        {
          "internalType": "bytes32",
          "name": "salt",
          "type": "bytes32"
        },
        {
          "internalType": "uint256[]",
          "name": "extensions",
          "type": "uint256[]"
        }
      ],
      "stateMutability": "view",
      "type": "function"
    },
    {
      "inputs": [
        {
          "components": [
            {
              "internalType": "address",
              "name": "from",
              "type": "address"
            },
            {
              "internalType": "address",
              "name": "to",
              "type": "address"
            },
            {
              "internalType": "uint256",
              "name": "value",
              "type": "uint256"
            },
            {
              "internalType": "uint256",
              "name": "gas",
              "type": "uint256"
            },
            {
              "internalType": "uint256",
              "name": "nonce",
              "type": "uint256"
            },
            {
              "internalType": "bytes",
              "name": "data",
              "type": "bytes"
            }
          ],
          "internalType": "struct Forwarder.ForwardRequest",
          "name": "req",
          "type": "tuple"
        },
        {
          "internalType": "bytes",
          "name": "signature",
          "type": "bytes"
        }
      ],
      "name": "execute",
      "outputs": [
        {
          "internalType": "bool",
          "name": "",
          "type": "bool"
        },
        {
          "internalType": "bytes",
          "name": "",
          "type": "bytes"
        }
      ],
      "stateMutability": "payable",
      "type": "function"
    },
    {
      "inputs": [
        {
          "internalType": "address",
          "name": "from",
          "type": "address"
        }
      ],
      "name": "getNonce",
      "outputs": [
        {
          "internalType": "uint256",
          "name": "",
          "type": "uint256"
        }
      ],
      "stateMutability": "view",
      "type": "function"
    },
    {
      "inputs": [
        {
          "components": [
            {
              "internalType": "address",
              "name": "from",
              "type": "address"
            },
            {
              "internalType": "address",
              "name": "to",
              "type": "address"
            },
            {
              "internalType": "uint256",
              "name": "value",
              "type": "uint256"
            },
            {
              "internalType": "uint256",
              "name": "gas",
              "type": "uint256"
            },
            {
              "internalType": "uint256",
              "name": "nonce",
              "type": "uint256"
            },
            {
              "internalType": "bytes",
              "name": "data",
              "type": "bytes"
            }
          ],
          "internalType": "struct Forwarder.ForwardRequest",
          "name": "req",
          "type": "tuple"
        },
        {
          "internalType": "bytes",
          "name": "signature",
          "type": "bytes"
        }
      ],
      "name": "verify",
      "outputs": [
        {
          "internalType": "bool",
          "name": "",
          "type": "bool"
        }
      ],
      "stateMutability": "view",
      "type": "function"
    }
  ],
  "transactionHash": "0x71356ca6735948ef4bd82b7fef3cd0cc725bb2c2363b2f486d94e953e100700b",
  "args": [],
  "numDeployments": 1,
  "solcInputHash": "9306ec064d8c5c43567858729ec356e5",
  "bytecode": "0x6101606040523480156200001257600080fd5b506040518060400160405280600f81526020016e23a9a73b19102337b93bb0b93232b960891b81525060405180604001604052806005815260200164302e302e3160d81b815250620000746000836200012e60201b620005361790919060201c565b61012052620000918160016200012e602090811b6200053617901c565b61014052815160208084019190912060e052815190820120610100524660a0526200011f60e05161010051604080517f8b73c3c69bb8fe3d512ecc4cf759cc79239f7b179b0ffacaa9a75d522b39400f60208201529081019290925260608201524660808201523060a082015260009060c00160405160208183030381529060405280519060200120905090565b60805250503060c0526200032d565b60006020835110156200014e57620001468362000182565b90506200017c565b826200016583620001ce60201b6200056f1760201c565b8151620001769260200190620001d1565b5060ff90505b92915050565b600080829050601f81511115620001b9578260405163305a27a960e01b8152600401620001b0919062000277565b60405180910390fd5b8051620001c682620002cf565b179392505050565b90565b828054620001df90620002f7565b90600052602060002090601f0160209004810192826200020357600085556200024e565b82601f106200021e57805160ff19168380011785556200024e565b828001600101855582156200024e579182015b828111156200024e57825182559160200191906001019062000231565b506200025c92915062000260565b5090565b5b808211156200025c576000815560010162000261565b600060208083528351808285015260005b81811015620002a65785810183015185820160400152820162000288565b81811115620002b9576000604083870101525b50601f01601f1916929092016040019392505050565b80516020808301519190811015620002f1576000198160200360031b1b821691505b50919050565b600181811c908216806200030c57607f821691505b602082108103620002f157634e487b7160e01b600052602260045260246000fd5b60805160a05160c05160e051610100516101205161014051610f866200038860003960006103670152600061033d015260006107be01526000610796015260006106f10152600061071b015260006107450152610f866000f3fe60806040526004361061003f5760003560e01c80632d0335ab1461004457806347153f821461008d57806384b0196e146100ae578063bf5d3bdb146100d6575b600080fd5b34801561005057600080fd5b5061007a61005f366004610b2b565b6001600160a01b031660009081526002602052604090205490565b6040519081526020015b60405180910390f35b6100a061009b366004610b5b565b610106565b604051610084929190610c56565b3480156100ba57600080fd5b506100c361032f565b6040516100849796959493929190610c79565b3480156100e257600080fd5b506100f66100f1366004610b5b565b6103b7565b6040519015158152602001610084565b600060606101158585856103b7565b6101815760405162461bcd60e51b815260206004820152603260248201527f4d696e696d616c466f727761726465723a207369676e617475726520646f6573604482015271081b9bdd081b585d18da081c995c5d595cdd60721b60648201526084015b60405180910390fd5b61019060808601356001610d0f565b600260006101a16020890189610b2b565b6001600160a01b03166001600160a01b03168152602001908152602001600020819055506000808660200160208101906101db9190610b2b565b6001600160a01b0316606088013560408901356101fb60a08b018b610d35565b61020860208d018d610b2b565b60405160200161021a93929190610d7c565b60408051601f198184030181529082905261023491610da2565b600060405180830381858888f193505050503d8060008114610272576040519150601f19603f3d011682016040523d82523d6000602084013e610277565b606091505b509150915081610306576044815110156102d35760405162461bcd60e51b815260206004820152601d60248201527f5472616e73616374696f6e2072657665727465642073696c656e746c790000006044820152606401610178565b600481019050808060200190518101906102ed9190610dd4565b60405162461bcd60e51b81526004016101789190610e81565b610315603f6060890135610e94565b5a1161032357610323610eb6565b90969095509350505050565b6000606080828080836103627f000000000000000000000000000000000000000000000000000000000000000083610572565b61038d7f00000000000000000000000000000000000000000000000000000000000000006001610572565b60408051600080825260208201909252600f60f81b9b939a50919850469750309650945092509050565b6000806104ca84848080601f0160208091040260200160405190810160405280939291908181526020018383808284376000920191909152506104c492507fdd8f4b70b0f4393e889bd39128a30628a78b61816a9eb8199759e7a349657e489150610427905060208a018a610b2b565b61043760408b0160208c01610b2b565b60408b013560608c013560808d013561045360a08f018f610d35565b604051610461929190610ecc565b6040805191829003822060208301989098526001600160a01b0396871690820152949093166060850152608084019190915260a083015260c082015260e08101919091526101000160405160208183030381529060405280519060200120610616565b90610643565b90506080850135600260006104e26020890189610b2b565b6001600160a01b03166001600160a01b031681526020019081526020016000205414801561052d57506105186020860186610b2b565b6001600160a01b0316816001600160a01b0316145b95945050505050565b60006020835110156105525761054b83610667565b9050610569565b828281516105639260200190610a92565b5060ff90505b92915050565b90565b606060ff83146105855761054b836106a5565b81805461059190610edc565b80601f01602080910402602001604051908101604052809291908181526020018280546105bd90610edc565b801561060a5780601f106105df5761010080835404028352916020019161060a565b820191906000526020600020905b8154815290600101906020018083116105ed57829003601f168201915b50505050509050610569565b60006105696106236106e4565b8360405161190160f01b8152600281019290925260228201526042902090565b60008060006106528585610814565b9150915061065f81610859565b509392505050565b600080829050601f81511115610692578260405163305a27a960e01b81526004016101789190610e81565b805161069d82610f16565b179392505050565b606060006106b2836109a6565b604080516020808252818301909252919250600091906020820181803683375050509182525060208101929092525090565b6000306001600160a01b037f00000000000000000000000000000000000000000000000000000000000000001614801561073d57507f000000000000000000000000000000000000000000000000000000000000000046145b1561076757507f000000000000000000000000000000000000000000000000000000000000000090565b61080f604080517f8b73c3c69bb8fe3d512ecc4cf759cc79239f7b179b0ffacaa9a75d522b39400f60208201527f0000000000000000000000000000000000000000000000000000000000000000918101919091527f000000000000000000000000000000000000000000000000000000000000000060608201524660808201523060a082015260009060c00160405160208183030381529060405280519060200120905090565b905090565b600080825160410361084a5760208301516040840151606085015160001a61083e878285856109ce565b94509450505050610852565b506000905060025b9250929050565b600081600481111561086d5761086d610f3a565b036108755750565b600181600481111561088957610889610f3a565b036108d65760405162461bcd60e51b815260206004820152601860248201527f45434453413a20696e76616c6964207369676e617475726500000000000000006044820152606401610178565b60028160048111156108ea576108ea610f3a565b036109375760405162461bcd60e51b815260206004820152601f60248201527f45434453413a20696e76616c6964207369676e6174757265206c656e677468006044820152606401610178565b600381600481111561094b5761094b610f3a565b036109a35760405162461bcd60e51b815260206004820152602260248201527f45434453413a20696e76616c6964207369676e6174757265202773272076616c604482015261756560f01b6064820152608401610178565b50565b600060ff8216601f81111561056957604051632cd44ac360e21b815260040160405180910390fd5b6000807f7fffffffffffffffffffffffffffffff5d576e7357a4501ddfe92f46681b20a0831115610a055750600090506003610a89565b6040805160008082526020820180845289905260ff881692820192909252606081018690526080810185905260019060a0016020604051602081039080840390855afa158015610a59573d6000803e3d6000fd5b5050604051601f1901519150506001600160a01b038116610a8257600060019250925050610a89565b9150600090505b94509492505050565b828054610a9e90610edc565b90600052602060002090601f016020900481019282610ac05760008555610b06565b82601f10610ad957805160ff1916838001178555610b06565b82800160010185558215610b06579182015b82811115610b06578251825591602001919060010190610aeb565b50610b12929150610b16565b5090565b5b80821115610b125760008155600101610b17565b600060208284031215610b3d57600080fd5b81356001600160a01b0381168114610b5457600080fd5b9392505050565b600080600060408486031215610b7057600080fd5b833567ffffffffffffffff80821115610b8857600080fd5b9085019060c08288031215610b9c57600080fd5b90935060208501359080821115610bb257600080fd5b818601915086601f830112610bc657600080fd5b813581811115610bd557600080fd5b876020828501011115610be757600080fd5b6020830194508093505050509250925092565b60005b83811015610c15578181015183820152602001610bfd565b83811115610c24576000848401525b50505050565b60008151808452610c42816020860160208601610bfa565b601f01601f19169290920160200192915050565b8215158152604060208201526000610c716040830184610c2a565b949350505050565b60ff60f81b881681526000602060e081840152610c9960e084018a610c2a565b8381036040850152610cab818a610c2a565b606085018990526001600160a01b038816608086015260a0850187905284810360c0860152855180825283870192509083019060005b81811015610cfd57835183529284019291840191600101610ce1565b50909c9b505050505050505050505050565b60008219821115610d3057634e487b7160e01b600052601160045260246000fd5b500190565b6000808335601e19843603018112610d4c57600080fd5b83018035915067ffffffffffffffff821115610d6757600080fd5b60200191503681900382131561085257600080fd5b8284823760609190911b6bffffffffffffffffffffffff19169101908152601401919050565b60008251610db4818460208701610bfa565b9190910192915050565b634e487b7160e01b600052604160045260246000fd5b600060208284031215610de657600080fd5b815167ffffffffffffffff80821115610dfe57600080fd5b818401915084601f830112610e1257600080fd5b815181811115610e2457610e24610dbe565b604051601f8201601f19908116603f01168101908382118183101715610e4c57610e4c610dbe565b81604052828152876020848701011115610e6557600080fd5b610e76836020830160208801610bfa565b979650505050505050565b602081526000610b546020830184610c2a565b600082610eb157634e487b7160e01b600052601260045260246000fd5b500490565b634e487b7160e01b600052600160045260246000fd5b8183823760009101908152919050565b600181811c90821680610ef057607f821691505b602082108103610f1057634e487b7160e01b600052602260045260246000fd5b50919050565b80516020808301519190811015610f105760001960209190910360031b1b16919050565b634e487b7160e01b600052602160045260246000fdfea2646970667358221220e4176cc680e2155583ddf8646bdd99feb89fea1161b9c101781a79e8b9fa377f64736f6c634300080d0033",
  "devdoc": {
    "kind": "dev",
    "methods": {
      "eip712Domain()": {
        "details": "See {EIP-5267}. _Available since v4.9._"
      }
    },
    "version": 1
  },
  "userdoc": {
    "kind": "user",
    "methods": {},
    "version": 1
  },
  "storageLayout": {
    "storage": [
      {
        "astId": 4355,
        "contract": "src/Forwarder.sol:Forwarder",
        "label": "_nameFallback",
        "offset": 0,
        "slot": "0",
        "type": "t_string_storage"
      },
      {
        "astId": 4357,
        "contract": "src/Forwarder.sol:Forwarder",
        "label": "_versionFallback",
        "offset": 0,
        "slot": "1",
        "type": "t_string_storage"
      },
      {
        "astId": 6937,
        "contract": "src/Forwarder.sol:Forwarder",
        "label": "_nonces",
        "offset": 0,
        "slot": "2",
        "type": "t_mapping(t_address,t_uint256)"
      }
    ],
    "types": {
      "t_address": {
        "encoding": "inplace",
        "label": "address",
        "numberOfBytes": "20"
      },
      "t_mapping(t_address,t_uint256)": {
        "encoding": "mapping",
        "key": "t_address",
        "label": "mapping(address => uint256)",
        "numberOfBytes": "32",
        "value": "t_uint256"
      },
      "t_string_storage": {
        "encoding": "bytes",
        "label": "string",
        "numberOfBytes": "32"
      },
      "t_uint256": {
        "encoding": "inplace",
        "label": "uint256",
        "numberOfBytes": "32"
      }
    }
  }
}